:020000040800F2
:1000000068130020A101000879210008A702000858
:10001000752100088F0400084D2D00080000000025
:10002000000000000000000000000000B301000814
:100030009304000800000000F301000809250008EF
:10004000BB010008BB010008BB010008BB010008A0
:10005000BB010008BB010008BB010008BB01000890
:10006000BB010008BB010008BB010008BB01000880
:10007000BB010008BB010008BB010008BB01000870
:10008000BB010008BB010008BB010008BB01000860
:10009000BB010008BB010008BB010008BB01000850
:1000A000BB010008D9260008BB010008BB010008FD
:1000B000BB010008BB010008BB010008BB01000830
:1000C000BB010008BB010008BB010008BB01000820
:1000D000BB010008BB010008BB010008BB01000810
:1000E000BB010008BB010008BB010008BB01000800
:1000F000BB010008BB010008BB010008BB010008F0
:10010000BB010008BB010008BB010008BB010008DF
:10011000BB010008BB010008BB010008BB010008CF
:10012000BB010008BB010008BB010008BB010008BF
:10013000BB010008BB010008BB010008BB010008AF
:10014000BB010008BB010008BB010008BB0100089F
:10015000BB010008BB010008BB010008BB0100088F
:10016000BB010008BB010008BB010008BB0100087F
:10017000BB010008BB010008BB0100080000000033
:10018000BB010008BB010008DFF810D000F068F9DF
:100190000048004785040008AFF300806813002082
:1001A0000648804706480047FEE7FEE7FEE7FEE711
:1001B000FEE7FEE7FEE7FEE7FEE7FEE79126000822
:1001C00089010008EFF3108072B6704780F3108841
:1001D0007047434A1368012B04D04FF001031360AA
:1001E000404A1060404A116040484FF08051016021
:1001F0007047EFF3108272B63948016851B34FF07F
:10020000000101603748016891B1EFF309811EF0E8
:10021000100F08BF21ED108B21E9F00F4FF0000403
:100220001EF0100F08BF012441F8044D0068016062
:100230002D490968096808C9B1E8F00F002B18BFFB
:1002400000F05AB881F309884EF0100E002B18BF49
:100250002EF0100E82F310884EF0040E70472249E3
:100260000860EFF3148222F0040282F314881D491F
:100270004FF0000008601A494FF0010008601C4868
:100280004FF47F01D0F8002041EA020101601748D5
:100290004FF08051016017480068006880F30888BB
:1002A00061B662B670471EF0040F0CBFEFF3088012
:1002B000EFF3098020E9F00F40F804ED40F804ED79
:1002C0001EF0040F0CBF80F3088880F3098800B586
:1002D00004F0FEF85DF804EB4EF0040E70470000E9
:1002E000940000208C0000209000002004ED00E02D
:1002F00020ED00E008ED00E0B1EC088BB1EC08CB9C
:10030000FFF7A0BF2DE9F05F0546002092469B460F
:1003100088460646814640241BE02846414647461B
:10032000224600F08DF853465A46C01A914110D328
:1003300011461846224600F074F82D1A67EB0108A2
:100340004F4622460120002100F06BF817EB000910
:100350004E41201EA4F10104DFDC484631462A4606
:10036000434600F000B830BCBDE8C09F40EA01033E
:100370009B0703D009E008C9121F08C0042AFAD25B
:1003800003E011F8013B00F8013B521EF9D270471F
:10039000D2B201E000F8012B491EFBD270470022C7
:1003A000F6E710B513460A4604461946FFF7F0FF74
:1003B000204610BD421E12F8013F002BFBD111F860
:1003C000013B02F8013B002BF9D1704710B5044600
:1003D00004E00B7800F8013B03B1491C521EF8D22F
:1003E000204610BD421C10F8011B0029FBD1801AC9
:1003F0007047034611F8012B00F8012B002AF9D1B0
:100400001846704730B505460020034600E05B1CE7
:10041000934205D2EC5CC85C201A01D1002CF6D1C5
:1004200030BD202A04DB203A00FA02F10020704798
:100430009140C2F1200320FA03F319439040704722
:10044000202A04DB203A21FA02F00021704721FA29
:1004500002F3D040C2F12002914008431946704790
:10046000064C074D06E0E06840F0010394E8070001
:1004700098471034AC42F6D3FFF78AFEDC620008DE
:10048000FC62000810B505F0A6FB002010BD00BFFF
:10049000FEE7704772B600BFFEE7000078B503467E
:1004A0000022E5E0012696400D6805EA0604002CCE
:1004B0007DD04D68012D08D04D68022D05D04D68C6
:1004C000112D02D04D68122D13D1986856000325C6
:1004D000B540A8435600CD68B54028439860586899
:1004E00001259540A8430D79C5F300159540284393
:1004F00058600D7905F00305032D09D1D86A01254F
:100500009540A8430D79C5F3C00595402843D862AE
:10051000D86856000325B540A84356008D68B540FD
:100520002843D8604D68022D02D04D68122D13D19A
:10053000D60803F1200555F826005507EE0E0F25C5
:10054000B540A8435607F60E0D69B5402843D608B6
:1005500003F1200545F82600186856000325B5402C
:10056000A8430D7905F003055600B54028431860EF
:100570004D6805F08055B5F1805F78D100BF3F4DE3
:100580002D6E45F001053D4E356635462D6E05F064
:100590000105009500BF00BF4FEAB635960855F833
:1005A000260095072E0F0F25B540A84300E05EE01A
:1005B000B3F1904F01D100251EE0314DAB4201D186
:1005C000012519E02F4DAB4201D1022514E02E4D3B
:1005D000AB4201D103250FE02C4DAB4201D10425E4
:1005E0000AE02B4DAB4201D1052505E0294DAB4278
:1005F00001D1062500E007259607360FB5402843B0
:10060000254D960845F82600244D2868A0434D68DE
:1006100005F48035B5F5803F00D120431F4D28609B
:100620002D1D2868A0434D6805F40035B5F5003F41
:1006300000D12043194D2D1D28602D1D2868A04391
:100640004D6805F48015B5F5801F00D12043134D8A
:10065000083528602D1D2868A0434D6805F4001555
:10066000B5F5001F00D120430C4D0C352860521CFD
:100670000D68D540002D7FF415AF78BD0010024005
:100680000004004800080048000C00480010004822
:100690000014004800180048080001400004014010
:1006A0000AB1816100E08162704700000148006882
:1006B0007047000000000020024692F84100202808
:1006C0002DD100BF92F84000012801D102207047CF
:1006D000012082F8400000BF242082F84100106809
:1006E000006820F00100136818601068006820F4AA
:1006F0008050136818601068006808431368186019
:100700001068006840F0010013681860202082F82B
:10071000410000BF002082F8400000BFD7E7022060
:10072000D5E710B502460B4692F8410020282AD1A1
:1007300000BF92F84000012801D1022010BD012025
:1007400082F8400000BF242082F841001068006851
:1007500020F00100146820601068016821F47061C5
:1007600041EA0321106801601068006840F0010050
:1007700014682060202082F8410000BF002082F829
:10078000400000BFDAE70220D8E7000010B50446B9
:100790000CB9012010BD94F8410028B9002084F85C
:1007A0004000204600F054F8242084F841002068DE
:1007B000006820F0010021680860606820F0706027
:1007C000216808612068806820F400402168886002
:1007D000E068012805D1A06840F4004021688860E5
:1007E00004E0A06840F4044021688860E0680228C2
:1007F00002D180022168486020684068134908439C
:10080000216848602068C06820F400402168C86002
:10081000D4E904010843A16940EA01202168C860C5
:10082000D4E907010843216808602068006840F0A7
:1008300001002168086000206064202084F84100E5
:100840000020206384F8420000BFA3E7008000027C
:1008500010B586B00446142101A8FFF7A0FD2F496A
:100860002068884229D100BF2D48C06C40F00200AA
:100870002B49C8640846C06C00F00200009000BF1D
:1008800000BFC0200190122002900120039003209D
:1008900004900420059001A92248FFF7FFFD00BF46
:1008A0001F48806D40F400101D4988650846806D22
:1008B00000F40010009000BF2EE01B492068884221
:1008C0002AD100BF1648C06C40F002001449C86429
:1008D0000846C06C00F00200009000BF00BF4FF45B
:1008E00040600190122002900120039003200490A8
:1008F0000420059001A90B48FFF7D0FD00BF084870
:10090000806D40F48000064988650846806D00F4DB
:100910008000009000BF00BF06B010BD0054004032
:1009200000100240000400480058004003480068DE
:100930000349097808440149086070470000002015
:100940000800002010B500240948006840F48070B9
:1009500007490860032000F0C7F8002000F00AF8FB
:1009600008B1012401E000F049F8204610BD000064
:100970000020024070B588B0044600250026002201
:100980002146192000F06EF8192000F057F800BF3A
:100990001648006E40F40060144908660846006E70
:1009A00000F40060019000BF00BF02A903A800F09E
:1009B00025FC00F05DFC05460D48B5FBF0F0461E39
:1009C0000C480D49086040F2E7310B48C1604660B1
:1009D00000210161816001F054F820B9064801F05E
:1009E00089F808B070BD0120FBE70000001002404C
:1009F00040420F00002C0140B404002008B500BFA5
:100A00000D48006E40F001000B4908660846006E74
:100A100000F00100009000BF00BF00BF0846806DDD
:100A200040F0805088650846806D00F0805000904E
:100A300000BF00BF08BD000000100240014608468C
:100A400000280DDB00BF00BF00F01F0301229A4009
:100A500043099B0003F1E023C3F8002100BF00BF5E
:100A600000BF70472DE9F05F80460D46164600270F
:100A700002F086F9074639462A46334601F0070058
:100A8000C0F1070ABAF1040F02D94FF0040A01E0DD
:100A9000C0F1070AD14600F1040ABAF1070F02D2E9
:100AA0004FF0000A01E0A0F1030AD4464FF0010A1A
:100AB0000AFA09FAAAF1010A0AEA020A0AFA0CFA7F
:100AC0004FF0010B0BFA0CFBABF1010B0BEA030B24
:100AD0004AEA0B042146404602F05AF900F000B8F9
:100AE00030BCBDE8C09F000000BF00F00702064B0D
:100AF00019684FF6FF031940044B0B4343EA0221E8
:100B0000014B196000BF70470CED00E00000FA05D2
:100B10000246B2F5007F2AD11D48006800F4C0608B
:100B2000B0F5007F32D01A48006820F4C06040F46D
:100B30000070174B18601748006832235843164B53
:100B4000B0FBF3F0411C00E0491E1148406900F47D
:100B50008060B0F5806F01D10029F5D10C48406963
:100B600000F48060B0F5806F10D103207047084812
:100B7000006800F4C060B0F5806F07D004480068DA
:100B800020F4C06040F48060014B18600020EDE765
:100B9000007000400C00002040420F000248006836
:100BA00000F4C06070470000007000402DE9F84379
:100BB00004460025A846208800F40060B0F5006FC8
:100BC00030D1606E80B1B0F5800F13D0B0F5000F5A
:100BD00003D0B0F5400F15D113E0FB48C06840F4D6
:100BE0008030F949C8600FE00021201D01F0C6FAED
:100BF000054609E0002104F1200001F085FB0546CF
:100C000002E001E0012500BF00BF55B9EE48883081
:100C1000006820F44000616E0843EB49C1F8880089
:100C200000E0A846208800F48050B0F5805F30D105
:100C3000A06E80B1B0F1807F13D0B0F1007F03D0FF
:100C4000B0F1407F15D113E0DF48C06840F4803038
:100C5000DD49C8600FE00021201D01F08FFA054634
:100C600009E0002104F1200001F04EFB054602E0FE
:100C700001E0012500BF00BF55B9D34888300068A6
:100C800020F04070A16E0843CF49C1F8880000E011
:100C9000A846206800F40030B0F5003F77D14FF04F
:100CA0000009C948806D012121EA107078B100BFA8
:100CB000C548806D40F08050C34988650846806D06
:100CC00000F08050009000BF00BF4FF00109BF4806
:100CD000006840F48070BD490860FFF7E7FC0746F4
:100CE00006E0FFF7E3FCC01B022801D9032505E05D
:100CF000B648006800F480700028F2D000BF85BBC1
:100D0000B1489030006800F44076D6B1D4F8840041
:100D1000B04216D0AC489030006820F44076AA4823
:100D2000D0F8900040F48030A749C1F89000084600
:100D3000D0F8900020F48030C1F890000846C0F848
:100D4000906006F00100A8B1FFF7B0FC074609E08B
:100D5000FFF7ACFCC01B41F28831884202D9032561
:100D600007E017E098489030006800F00200002883
:100D7000EED000BF65B994489030006820F4407010
:100D8000D4F8841008439049C1F8900003E00CE0C7
:100D9000A84600E0A846B9F1010F05D18A48806D48
:100DA00020F080508849886500BF207800F001005D
:100DB00048B185488830006820F00300A16B0843E3
:100DC0008149C1F88800207800F00200022809D18A
:100DD0007D488830006820F00C00E16B08437A49B8
:100DE000C1F88800207800F00400042809D1764872
:100DF0008830006820F03000216C08437249C1F847
:100E00008800207800F00800082809D16E48883052
:100E1000006820F0C000616C08436B49C1F888008D
:100E2000207800F01000102809D167488830006849
:100E300020F44070A16C08436349C1F88800207811
:100E400000F02000202809D15F488830006820F495
:100E50004060E16C08435C49C1F88800208800F4D8
:100E60000070B0F5007F09D157488830006820F441
:100E70004020E16D08435449C1F88800208800F4FF
:100E80008060B0F5806F09D14F488830006820F449
:100E90004010216E08434C49C1F88800207800F0CA
:100EA0004000402809D148488830006820F440506C
:100EB000216D08434449C1F88800207800F0800083
:100EC000802809D140488830006820F44040616D96
:100ED00008433D49C1F88800208800F48070B0F5CF
:100EE000807F09D138488830006820F44030A16DF7
:100EF00008433549C1F88800208800F40050B0F557
:100F0000005F1FD130488830006820F04060E16EFB
:100F100008432D4988310860E06EB0F1006F06D1BA
:100F20002948C06840F480102749C8600AE0E06E94
:100F3000B0F1806F06D10121201D01F01FF9054697
:100F400005B1A846206800F40020B0F5002F1FD19D
:100F50001D488830006820F04060216F08431A491E
:100F600088310860206FB0F1006F06D11648C06864
:100F700040F480101449C8600AE0206FB0F1806F1F
:100F800006D10121201D01F0F9F8054605B1A8465A
:100F9000206800F48020B0F5802F24D10A488830E2
:100FA000006820F04060616F08430749883108609D
:100FB000606FB0F1006F0BD10348C06840F480103F
:100FC0000149C8600FE000000010024000700040BE
:100FD000606FB0F1806F06D10121201D01F0CEF8C5
:100FE000054605B1A846208800F48040B0F5804F42
:100FF0001FD12248006820F04050A16F08431F49CC
:101000000860A06FB0F1805F07D10221201D01F0C0
:10101000B5F805466DB1A8460BE0A06FB0F1005FD2
:1010200007D1022104F1200001F06EF9054605B157
:10103000A846208800F40040B0F5004F09D10F48C1
:10104000006820F08040E16F08430C498839C1F8FE
:101050008800206800F48030B0F5803F0AD107484E
:10106000006820F00040D4F8801008430349883914
:10107000C1F888004046BDE8F883000088100240AF
:101080002DE9F04104460D4614B90120BDE8F08178
:101090005548006800F00700A8420ED25248006888
:1010A00020F007002843504908600846006800F017
:1010B0000700A84201D00120E8E7207800F00100F5
:1010C000002840D06068032806D14848006800F036
:1010D0000070D8B90120D9E76068022806D14348DA
:1010E000006800F4003088B90120CFE7606830B9AB
:1010F0003E48006800F0020040B90120C6E73B48C6
:10110000006800F4806008B90120BFE737488068B4
:1011100020F003006168084334498860FFF7C6FA8D
:10112000064608E0FFF7C2FA801B41F28831884288
:1011300001D90320AAE72D48806800F00C006168FF
:10114000B0EB810FEED1207800F00200022807D129
:101150002648806820F0F000A16808432349886091
:101160002148006800F00700A8420ED91E48006818
:1011700020F0070028431C4908600846006800F07A
:101180000700A84201D0012080E7207800F0040089
:10119000042807D11548806820F4E060E16808431E
:1011A00012498860207800F00800082808D10F480C
:1011B000806820F46050216940EAC1000B498860D2
:1011C00000F068F809498968C1F30311084A515CC5
:1011D00001F01F01C8400749086007480068FFF791
:1011E000C9FB0746384651E7002002400010024084
:1011F000A45D00080C000020040000200F22026003
:101200000D4A926802F0030242600B4A926802F0B3
:10121000F0028260084A926802F4E062C260064A04
:10122000926802F46052D2080261044A126802F025
:1012300007020A60704700000010024000200240D0
:1012400001480068704700000C00002000B5FFF75F
:10125000F7FF05498968C1F30221044A515C01F096
:101260001F01C84000BD000000100240B45D00082E
:1012700000B5FFF7E5FF05498968C1F3C221044ABB
:10128000515C01F01F01C84000BD00000010024089
:10129000B45D0008F0B500230020DFF8D4C0DCF80E
:1012A00008C00CF00C01DFF8C8C0DCF80CC00CF072
:1012B000030719B10C291ED1012F1CD1DFF8B0C0D2
:1012C000DCF800C00CF0080CBCF1000F06D1DFF810
:1012D000A0C0DCF894C0CCF3032305E0DFF890C095
:1012E000DCF800C0CCF30313DFF888C05CF82330CF
:1012F00041B9184606E0042901D11F4802E0082937
:1013000000D11E480C2932D1DFF864C0DCF80CC0D3
:101310000CF00304012C09D0022C02D0032C04D1C0
:1013200001E0154A04E0154A02E000BF1A4600BF7A
:1013300000BFDFF83CC0DCF80CC0CCF3021C0CF1A1
:101340000106DFF82CC0DCF80CC0CCF3062C0CFB3B
:1013500002FCBCFBF6F2DFF818C0DCF80CC0CCF3E2
:10136000416C0CF1010C4FEA4C05B2FBF5F0F0BDFD
:1013700000100240BC5D00080024F40000127A0056
:101380002DE9F843044614B90120BDE8F883F94873
:10139000806800F00C06F748C06800F0030720786A
:1013A00000F01000102877D11EB10C2E76D1012F3D
:1013B00074D1F048006800F0020018B1A06908B9C3
:1013C0000120E2E7EB48216A006800F0080020B144
:1013D000E848006800F0F00005E0E6489430006856
:1013E00000F47060000981421FD9206A01F03EF8C4
:1013F00008B10120C9E700BFDE48006840F00800DE
:10140000DC4908600846006820F0F000216A0843C3
:10141000D849086000BF0846406820F47F40E16971
:1014200040EA0120D34948601FE000BFD14800686E
:1014300040F00800CF4908600846006820F0F0003E
:10144000216A0843CB49086000BF0846406820F481
:101450007F40E16940EA0120C64948602EB9206A10
:1014600001F004F808B101208FE7FFF713FFC1492D
:101470008968C1F30311C04A515C01F01F01C840E3
:10148000BE490860BE480068FFF774FA8046B8F1AC
:10149000000F4ED0404678E74BE0FFE7A06980B3ED
:1014A000B448006840F00100B2490860FFF7FEF858
:1014B000054606E0FFF7FAF8401B022801D9032091
:1014C00063E7AC48006800F002000028F2D000BFDB
:1014D000A848006840F00800A6490860084600686F
:1014E00020F0F000216A0843A249086000BF0846C6
:1014F000406820F47F40E16940EA01209D4948604E
:1015000017E0FFE79B48006820F001009949086058
:10151000FFF7CCF8054606E0FFF7C8F8401B0228A5
:1015200001D9032031E79348006800F00200002849
:10153000F2D1207800F0010000285CD0082E03D002
:101540000C2E0AD1032F08D18A48006800F400301D
:1015500088B3606878BB012017E700BF6068B0F50A
:10156000803F06D18348006840F48030814908609C
:101570001AE06068B0F5A02F0BD17E48006840F4F7
:1015800080207C4908600846006840F4803008608C
:101590000AE07848006820F4803076490860084600
:1015A000006820F48020086000BF606890B1FFF7F9
:1015B0007DF8054607E01EE0FFF778F8401B642839
:1015C00001D90320E1E66B48006800F400300028F0
:1015D000F2D010E0FFF76AF8054606E0FFF766F87C
:1015E000401B642801D90320CFE66248006800F45C
:1015F00000300028F2D1207800F00200022852D1F9
:10160000042E03D00C2E14D1022F12D15948006899
:1016100000F4806018B1E06808B90120B5E65548CB
:10162000406820F0F850217C40EA01605149486050
:1016300039E0E06800B34F48006840F480704D49DD
:101640000860FFF733F8054606E0FFF72FF8401B68
:10165000022801D9032098E64648006800F480601B
:101660000028F2D04348406820F0F850217C40EA3E
:1016700001604049486016E03E48006820F48070F0
:101680003C490860FFF712F8054606E0FFF70EF840
:10169000401B022801D9032077E63648006800F491
:1016A00080600028F2D1207800F00800082836D1A8
:1016B0006069D0B12F489430006840F001002D4996
:1016C000C1F89400FEF7F2FF054606E0FEF7EEFFD4
:1016D000401B022801D9032057E6264894300068B1
:1016E00000F002000028F1D019E022489430006890
:1016F00020F001001F49C1F89400FEF7D7FF05460E
:1017000006E0FEF7D3FF401B022801D903203CE688
:1017100018489430006800F002000028F1D12078C9
:1017200000F00400042872D14FF000091148806DC8
:1017300000F0805078B900BF0E48806D40F08050B6
:101740000C4988650846806D00F08050009000BF0D
:1017500000BF4FF001090B48006800F4807000BB27
:101760000848006840F4807006490860FEF79EFF54
:10177000054610E000100240A45D00080C000020A7
:101780000400002000700040FEF790FF401B02287C
:1017900001D90320F9E5B548006800F480700028FD
:1017A000F2D000BFA068012808D1B148006840F01D
:1017B0000100AF499039C1F8900021E0A0680528E8
:1017C0000FD1AB48006840F00400A9499039C1F836
:1017D00090000846D0F8900040F00100C1F8900059
:1017E0000EE0A348006820F00100A1499039C1F83B
:1017F00090000846D0F8900020F00400C1F8900056
:1018000000BFA068A0B1FEF751FF054609E02EE039
:10181000FEF74CFF401B41F28831884201D903207A
:10182000B3E59348006800F002000028F0D012E011
:10183000FEF73CFF054608E0FEF738FF401B41F28B
:101840008831884201D903209FE58948006800F06B
:1018500002000028F0D1B9F1010F07D18448903877
:10186000806D20F0805082499039886500BFA06A61
:1018700000287DD0A06A02287BD17D489038C768B7
:1018800007F00301E06A814228D107F07001206B64
:10189000401EB1EB001F21D107F4FE41606BB1EB9C
:1018A000002F1BD107F40031A06B072801D00120C5
:1018B00000E00020814211D107F4C001A08F012275
:1018C000C2EB5000B1EB405F08D107F0C06140208F
:1018D000005DC2EB5000B1EB406F6CD00C2E68D0B5
:1018E00063489038006800F0806028B960489038FC
:1018F000006800F0805008B1012046E55C4890384F
:10190000006820F080705A4990390860FEF7CEFEDA
:10191000054606E0FEF7CAFE401B022801D9032057
:1019200033E553489038006800F000700028F1D18A
:10193000D4E90B10401E41EA0011606B41EA00211E
:10194000A08F0122C2EB500041EA40514020005DCF
:10195000C2EB500041EA4061A06B000941EA4040FF
:1019600043499039C968434A11400843404901E05E
:1019700066E046E09039C8600846006840F0807034
:1019800008600846C06840F08070C860FEF78EFEB0
:10199000054606E0FEF78AFE401B022801D9032017
:1019A000F3E433489038006800F000700028F1D06C
:1019B0005AE00120E9E42E489038006800F00070F9
:1019C000F0BB2B489038006840F08070284990396F
:1019D00008600846C06840F08070C860FEF766FE88
:1019E000054606E0FEF762FE401B022801D90320EF
:1019F000CBE41F489038006800F000700028F1D058
:101A000032E00C2E2ED01A489038006820F08070FA
:101A10001749903908600846006800F0205020B946
:101A20000846C06820F00300C86011489038C068BC
:101A3000114908400E499039C860FEF737FE00E0B2
:101A400012E0054606E0FEF731FE401B022801D9F0
:101A500003209AE406489038006800F000700028DF
:101A6000F1D101E0012090E400208EE400700040FC
:101A7000901002408C809DF9FFFFEEFE704770478A
:101A8000704710B504460CB9012010BD94F83D0014
:101A900028B9002084F83C00204600F029F80220F4
:101AA00084F83D00211D206800F01EFE012084F80E
:101AB000480000BF84F83E0001213F20015540202E
:101AC000015541200155422001554320015500BFD9
:101AD00000BF012084F844004520015546200155EF
:101AE0004720015500BF012084F83D000020CCE7CD
:101AF00070470000014691F83D00012801D0012007
:101B00007047022081F83D000868C06840F001007D
:101B10000B68D8601A4B0868984217D00868B0F173
:101B2000804F13D0174B086898420FD0164B0868A7
:101B300098420BD0154B0868984207D0144B0868A0
:101B4000984203D0134B0868984210D10868806807
:101B5000114B00EA0302062A0FD0B2F5803F0CD0E9
:101B60000868006840F001000B68186005E008682C
:101B7000006840F001000B6818600020C0E700001A
:101B8000002C01400004004000080040000C004010
:101B9000003401400040014007000100704710B5CB
:101BA000044620680069C0F34000D8B12068C068CE
:101BB000C0F34000B0B16FF002002168086101205D
:101BC00020772068806900F0030018B12046FFF7F5
:101BD000E5FF05E0204600F0BEF8204600F0BCF826
:101BE0000020207720680069C0F38000D8B1206809
:101BF000C068C0F38000B0B16FF0040021680861D4
:101C0000022020772068806900F4407018B12046D7
:101C1000FFF7C4FF05E0204600F09DF8204600F0E5
:101C20009BF80020207720680069C0F3C000D8B17D
:101C30002068C068C0F3C000B0B16FF00800216830
:101C40000861042020772068C06900F0030018B103
:101C50002046FFF7A3FF05E0204600F07CF8204671
:101C600000F07AF80020207720680069C0F30010A7
:101C7000D8B12068C068C0F30010B0B16FF0100098
:101C800021680861082020772068C06900F440704E
:101C900018B12046FFF782FF05E0204600F05BF810
:101CA000204600F059F8002020772068006900F0F5
:101CB000010058B12068C06800F0010030B16FF039
:101CC000010021680861204600F048F8206800699A
:101CD000C0F3C01058B12068C068C0F3C01030B164
:101CE0006FF08000216808612046FFF7C8FE206879
:101CF0000069C0F3002058B12068C068C0F3C0106C
:101D000030B16FF48070216808612046FFF7B6FE9D
:101D100020680069C0F3801058B12068C068C0F323
:101D2000801030B16FF0400021680861204600F05B
:101D300021F820680069C0F3401058B12068C068DD
:101D4000C0F3401030B16FF02000216808612046D8
:101D5000FFF796FE10BD70477047000010B50446AF
:101D600003492068884201D1FEF7E0FD10BD000064
:101D7000002C0140704710B504460CB9012010BD7D
:101D8000A06900B100E000BFA06F28B9002084F86E
:101D90007400204600F02AF82420A067206800681C
:101DA00020F0010021680860204600F0B9FD0128FC
:101DB00000D1E4E7606A10B1204600F0FBFC206827
:101DC000406820F49040216848602068806820F0D6
:101DD0002A00216888602068006840F001002168BE
:101DE0000860204600F062FDC9E7000010B586B02B
:101DF0000446142101A8FEF7D2FA3049206888422F
:101E00002BD100BF2E48006E40F480402C4908665C
:101E10000846006E00F48040009000BF00BF00BF85
:101E20000846C06C40F00100C8640846C06C00F071
:101E30000100009000BF00BF4FF4C060019002207D
:101E4000029000200390032004900720059001A930
:101E50004FF09040FEF722FB2DE01A49206888429F
:101E600029D100BF1648806D40F4003014498865C0
:101E70000846806D00F40030009000BF00BF00BF36
:101E80000846C06C40F00100C8640846C06C00F011
:101E90000100009000BF00BF0C20019002200290C2
:101EA00000200390032004900720059001A94FF023
:101EB0009040FEF7F3FA06B010BD00000038014074
:101EC00000100240004400402DE9F84F04460E4641
:101ED00017469946A06F20285DD106B117B9012099
:101EE00000F05BB800BF94F87400012801D1022013
:101EF000F6E7012084F8740000BF0020503420630E
:101F00002120A062FEF7D2FB824627806780503CEA
:101F1000A068B0F5805F04D1206910B90025B046F3
:101F200002E035464FF0000800BF002084F874003E
:101F300000BF1DE05346002280212046CDF80090CE
:101F400000F0A9FE08B10320CAE745B9B8F80000BF
:101F5000C0F308002168088508F1020803E028782A
:101F6000216808856D1CB4F85200401EA4F8520088
:101F7000B4F852000028DDD153460022402120460B
:101F8000CDF8009000F087FE08B10320A8E72020DC
:101F9000A0670020A4E70220A2E718BCBDE8E08FFC
:101FA00000B587B0142102A8FEF7F9F900BF314847
:101FB000C06C40F004002F49C8640846C06C00F0B3
:101FC0000400019000BF00BF00BF0846C06C40F095
:101FD0008000C8640846C06C00F08000019000BF1B
:101FE00000BF00BF0846C06C40F00100C86408464E
:101FF000C06C00F00100019000BF00BF00BF0846A8
:10200000C06C40F00200C8640846C06C00F00200DA
:10201000019000BF00BF002220214FF09040FEF74A
:102020003FFB002220211448FEF73AFB4FF40050FA
:102030000290124803900020049002A91048FEF775
:102040002DFA20200290012003900020049005909A
:1020500002A94FF09040FEF721FA202002900120C3
:1020600003900490059002A90348FEF717FA07B001
:1020700000BD0000001002400004004800002110D4
:102080000008004810B5124812490860124848601C
:102090000021104881600121C1600021016141617E
:1020A0008161C1610162FEF771FB08B1FEF7F2F9CF
:1020B00000210848FEF700FB08B1FEF7EBF900210C
:1020C0000448FEF72EFB08B1FEF7E4F910BD00004E
:1020D0000054004014030020EC9C901010B51248EE
:1020E00012490860124848600021104881600121AF
:1020F000C1600021016141618161C1610162FEF73E
:1021000045FB08B1FEF7C6F900210848FEF7D4FAEE
:1021100008B1FEF7BFF900210448FEF702FB08B141
:10212000FEF7B8F910BD0000005800406003002021
:10213000EC9C901010B50D480D4908604FF4E1304B
:10214000486000210A488160C16001610C21416141
:1021500000218161C1610162002005494862084691
:10216000FFF709FE08B1FEF795F910BD00380140F0
:10217000AC03002000BFFEE700BFFEE72DE9F04101
:1021800004460F4600255C48C06800F0030090B18B
:102190005948C06800F003002168884209D12068CE
:1021A00038B15548C068C0F30210401C61688842CD
:1021B00033D0012531E02068012804D0022809D05D
:1021C00003281AD10DE04C48006800F0020000B965
:1021D000012514E04848006800F4806000B901253A
:1021E0000DE04548006800F4003028B94248006816
:1021F00000F4802000B9012501E0012500BF00BFE7
:102200005DB9D4E90010401E41EA00103A49C9689E
:1022100021F0730108433849C860002D68D1364861
:10222000006820F0806034490860FEF73FFA0646F7
:1022300006E0FEF73BFA801B022801D9032505E0E2
:102240002D48006800F000600028F2D100BFCDBB2F
:102250006FB9A0680002E168090940EA41402649D7
:102260000969264A114008432349086120E0012FEB
:102270000FD1A0680002218A0122C2EB510140EA7D
:1022800041501D4909691E4A114008431A49086115
:102290000EE0A0680002217D0122C2EB510140EA5C
:1022A000416015490969174A1140084312490861FC
:1022B0001148006840F080600F490860FEF7F6F9A9
:1022C000064607E014E0FEF7F1F9801B022801D969
:1022D000032505E00848006800F000600028F2D0FF
:1022E00000BF2DB904480069A1690843024908618B
:1022F0002846BDE8F081000000100240FF80FDFF8D
:10230000FF809FFFFF80FFF92DE9F04104460F4653
:1023100000255348C06800F0030090B15048C068E1
:1023200000F003002168884209D1206838B14C4888
:10233000C068C0F30210401C6168884233D0012598
:1023400031E02068012804D0022809D003281AD1DE
:102350000DE04348006800F0020000B9012514E0D8
:102360003F48006800F4806000B901250DE03C485A
:10237000006800F4003028B93948006800F4802073
:1023800000B9012501E0012500BF00BF5DB9D4E916
:102390000010401E41EA00103149C96821F0730164
:1023A00008432F49C860002D56D12D48006820F001
:1023B00080502B490860FEF779F9064606E0FEF7E3
:1023C00075F9801B022801D9032505E0244800681F
:1023D00000F000500028F2D100BF75BB6FB9A068B3
:1023E0000002E168090940EA41401D4949691D4A66
:1023F000114008431A4948610EE0A0680002217CA0
:102400000122C2EB510140EA416015494969164A6F
:1024100011400843124948611148006840F080505B
:102420000F490860FEF742F9064607E0FEF73EF95D
:10243000801B022802D9032506E00DE00848006849
:1024400000F000500028F1D000BF2DB904484069C9
:1024500061690843024948612846BDE8F0810000EF
:1024600000100240FF80FDFFFF80FFF9F8B5044631
:1024700000262348806D00F0805018B1FEF78EFBD7
:10248000054616E000BF1E48806D40F080501C4994
:1024900088650846806D00F08050009000BF00BF46
:1024A000FEF77CFB05461648806D20F080501449ED
:1024B0008865B5F5007F07D1802C10D9A02C01D9F3
:1024C00002260CE001260AE0802C01D9032606E052
:1024D000802C01D1022602E0702C00D1012609488F
:1024E000006820F00700304306490860084600688D
:1024F00000F00700B04201D00120F8BD0020FCE749
:10250000001002400020024010B502F01FF902F056
:102510004BFF02F033F910BD00B5B9B0442128A833
:10252000FDF73DFF142123A8FDF739FF882101A8FD
:10253000FDF735FF02202890C0012B9010202C9031
:1025400002203290022128A8C162012101630A21E0
:102550004163072181630221C1630164FEF710FF1B
:1025600008B1FDF797FF0F2023900320249000204F
:10257000259026902790042123A8FEF781FD08B11D
:10258000FDF788FFC320019000200F901090159058
:10259000169001A8FEF70AFB08B1FDF77BFF4FF488
:1025A0000070FEF7B5FA08B1FDF774FF39B000BD51
:1025B000F0B5314E366806F008062EB92E4E943628
:1025C0003668C6F3032003E02B4E3668C6F30310CB
:1025D0002A4E56F82000284EB66806F00C0636B192
:1025E000042E07D0082E09D00C2E35D10AE0244E37
:1025F000306034E0234E224F3E6030E0224E204FC8
:102600003E602CE01C4EF66806F003051A4EF66894
:10261000C6F30216721C022D02D0032D08D103E06E
:10262000184EB6FBF2F106E0174EB6FBF2F102E0EF
:10263000B0FBF2F100BF00BF0F4EF668C6F30626EE
:1026400071430D4EF668C6F34166761C7400B1FB0B
:10265000F4F60B4F3E6002E0094E306000BF00BF51
:10266000054EB668C6F30316084FBB5D044E3668C8
:10267000DE40034F3E60F0BD00100240BC5D00082C
:102680000C0000200024F40000127A00A45D000871
:102690000E48006840F470000C4908600C4800685F
:1026A00040F001000A490860002088600846006880
:1026B00008490840064908608814C8600846006850
:1026C00020F48020086000208861704788ED00E0D9
:1026D00000100240FFFFF6EA10B50248FFF75FFA6C
:1026E00010BD0000B404002010B50268294B9842C8
:1026F0000ED0B0F1804F0BD0274B984208D0274B1B
:10270000984205D0264B984202D0264B984203D1DE
:1027100022F070024B681A431E4B984217D0B0F15A
:10272000804F14D01C4B984211D01C4B98420ED0B5
:102730001B4B98420BD01B4B984208D01A4B984227
:1027400005D01A4B984202D0194B984203D122F47B
:102750004072CB681A4322F080034C6943EA0402BA
:1027600002608B68C3620B6883620A4B98420BD08D
:102770000C4B984208D00C4B984205D00B4B98421A
:1027800002D00B4B984201D10B69036301234361D3
:1027900010BD0000002C0140000400400008004073
:1027A000000C004000340140004001400044014062
:1027B0000048014090F8241001F0010139B101688E
:1027C000496821F40031826A11430268516090F82F
:1027D000241001F00201022907D10168496821F49F
:1027E0008031C26A11430268516090F8241001F0F0
:1027F0000401042907D10168496821F48021026B92
:1028000011430268516090F8241001F00801082972
:1028100007D10168496821F40041426B1143026805
:10282000516090F8241001F01001102907D10168BF
:10283000896821F48051826B11430268916090F89D
:10284000241001F02001202907D10168896821F4B2
:102850000051C26B11430268916090F8241001F09E
:102860004001402913D10168496821F48011026CAC
:10287000114302685160016CB1F5801F07D10168F6
:10288000496821F4C001426C11430268516090F81C
:10289000241001F08001802907D10168496821F4E2
:1028A0000021826C114302685160704738B50446BC
:1028B0000020C4F88000FDF7F9FE05462068006896
:1028C00000F0080008280CD16FF07E402B46002253
:1028D0004FF400110090204600F0DDF908B103200C
:1028E00038BD2068006800F0040004280CD16FF0A7
:1028F0007E402B4600224FF480010090204600F0DD
:10290000CAF908B10320EBE72020A067E0670020A8
:10291000206600BF84F8740000BF00BFE0E700003D
:102920002DE9F84F044600200090D04920688842E5
:1029300000D100E000BF2169A06808436169084335
:10294000E16940EA010A20680068C949084040EA94
:102950000A00216808602068406820F44050E1685F
:10296000084321684860D4F818A0C049206888420C
:1029700002D0206A40EA0A0A2068806820F43060A9
:1029800040EA0A002168886000BFBA49206888428E
:1029900016D1B948006800F0030030B1012808D012
:1029A000022804D0032808D105E0012507E002250C
:1029B00005E0042503E0082501E0102500BF8DE0B7
:1029C000AE492068884216D1AB48006800F00C0080
:1029D00030B1042808D0082804D00C2808D105E01C
:1029E000002507E0022505E0042503E0082501E0B5
:1029F000102500BF72E0A2492068884216D19E4887
:102A0000006800F0300030B1102808D0202804D031
:102A1000302808D105E0002507E0022505E004255F
:102A200003E0082501E0102500BF57E09549206824
:102A3000884216D19048006800F0C00030B14028AC
:102A400008D0802804D0C02808D105E0002507E080
:102A5000022505E0042503E0082501E0102500BF5C
:102A60003CE089492068884219D18348006800F415
:102A7000407048B1B0F5807F0AD0B0F5007F05D036
:102A8000B0F5407F08D105E0002507E0022505E00C
:102A9000042503E0082501E0102500BF1EE073496E
:102AA0002068884219D17448006800F4406048B139
:102AB000B0F5806F0AD0B0F5006F05D0B0F5406F6B
:102AC00008D105E0002507E0022505E0042503E024
:102AD000082501E0102500BF00E0102500BF634974
:102AE0002068884245D135B1022D08D0042D08D088
:102AF000082D0DD109E0FEF7A9FB06460CE0634E58
:102B00000AE0FEF7C7FB064606E04FF4004603E086
:102B100000260120009000BF00BF002E0AD0606890
:102B200000EB4000B04203D860680003B04202D21C
:102B30000120009093E04FF48070A6FB0030D4F8A1
:102B400004C04FEA5C015F1840F1000162460023B7
:102B50003846FDF7D7FB8146B9F5407F06D3B9F576
:102B6000801F03D22068C0F80C9078E0012000900C
:102B700075E0E069B0F5004F3CD1092D17D2DFE8D0
:102B800005F005090D160F1616161300FEF75EFB6D
:102B9000064610E0FEF76CFB06460CE03B4E0AE0F2
:102BA000FEF778FB064606E04FF4004603E00026F9
:102BB0000120009000BF00BF7EB37000616800EB91
:102BC0005100B0FBF1F01FFA80F9B9F1100F0ED3EC
:102BD000B9F5803F0BD24FF6F07009EA000BC9F34C
:102BE00042004BEA000B2068C0F80CB037E001202F
:102BF000009034E0092D18D2DFE805F005090D1723
:102C0000101717171400FEF721FB064611E0FEF718
:102C10002FFB06460DE01D4E0BE020E0FEF73AFBD1
:102C2000064606E04FF4004603E00026012000902F
:102C300000BF00BF9EB1606806EB50006168B0FB4A
:102C4000F1F01FFA80F9B9F1100F06D3B9F5803F02
:102C500003D22068C0F80C9001E001200090002011
:102C60006066A066009800F013B800000080004085
:102C7000F369FFEF00380140881002400044004033
:102C800000480040004C0040005000400024F40088
:102C900018BCBDE8E08F2DE9F04104460D4617460B
:102CA0009846069E46E0701C002843D0FDF7FEFCC7
:102CB000A0EB0800B04200D8B6B92068006820F444
:102CC000D070216808602068806820F001002168C9
:102CD00088602020A067E06700BF002084F87400AF
:102CE00000BF0320BDE8F0812068006800F0040008
:102CF00000B32068C069C0F3C020D8B14FF40060B1
:102D0000216808622068006820F4D070216808609B
:102D10002068806820F00100216888602020A0677A
:102D2000E067C4F8800000BF002084F8740000BF92
:102D30000320D7E72068C0692840A84201D10120BC
:102D400000E00020B842AED00020CBE700BFFEE795
:102D50000146481EB0F1807F01D301207047481E14
:102D60004FF0E0225061FF20044A107000204FF025
:102D7000E0229061072010610020EFE723ED00E0E2
:102D800002480068C0F30220704700000CED00E02C
:102D900010B5002804DB0A07130E054A135406E099
:102DA0000A07140E034A00F00F031B1FD45410BD72
:102DB00000E400E018ED00E0014609B9002070478A
:102DC000C8B220B1C8B20E4A105C401CF7E701F44B
:102DD0007F4028B10A48C1F30722805C0930EEE742
:102DE00001F47F0028B10648C1F30742805C11302E
:102DF000E5E7034800EB116000781930DFE70000D9
:102E0000395F000802E008C8121F08C1002AFAD181
:102E100070477047002001E001C1121F002AFBD15A
:102E20007047000003490868884201D001207047BC
:102E30000020FCE7780000202DE9F04389B005462A
:102E40008946174600242DB94FF49B721C491DA0DA
:102E500001F056FA2FB940F2371219491AA001F0C1
:102E60004FFA00E0641C285D202804D0285D092862
:102E700001D04C45F6D324B94FF0FF3009B0BDE87E
:102E8000F0832146284601F04BF8064616B94FF06C
:102E9000FF30F3E7202101A8FDF781FA01AA494696
:102EA000284601F0A7F88046B8F1000F02D14FF094
:102EB000FF30E3E701A94046B04738600020DDE776
:102EC000BD5E0008636D64007265747000000000F0
:102ED0002DE9FC5F04468B4616461F46DDE90C9A39
:102EE000DDE90E5804F114004060006000BF266266
:102EF0006762C4F82890C4F82CA02321D4E90A0200
:102F000001F0B6FCD4E90A3C63441A1F134BD4E920
:102F1000080101F0F3FBE061202D04DB962210494B
:102F200010A001F0EDF93034A57165710020A060AA
:102F3000C4F80C80C4F810802060207120646064A4
:102F4000303C00902346104A2146019004F1440091
:102F500002F04CFB002000F019B80000E14D000821
:102F6000EB6000087072696F72697479203C2052BE
:102F7000545F5448524541445F5052494F5249545E
:102F8000595F4D41580000004D5200083CBCBDE85F
:102F9000C09F2DE9F04704460E4617469846DDF8D7
:102FA000209084F80990607A20F001006072E66158
:102FB00027620020A062C4F82480002506E004F106
:102FC000140101EBC50001F006FC6D1C012DF6DBC0
:102FD000BDE8F08710B50246002001460EE002F180
:102FE000140303EBC100D0E900436360D0E900346F
:102FF00023604060006000BF481C01460129EEDBF1
:1030000010BD000010B520A001F0CAFB21480178D6
:1030100021A001F0C5FB1F48007800F0010010B1AD
:1030200023A001F0BDFB1B48007800F0020010B1A6
:1030300022A001F0B5FB1748007800F0040010B1A1
:1030400021A001F0ADFB1348007800F0080010B19A
:1030500021A001F0A5FB0F48007800F0100010B18E
:1030600020A001F09DFB0B48007800F0800030B1FB
:1030700008480F3001681DA001F092FB02E01FA07C
:1030800001F08EFB10BD0000627573206661756CE7
:10309000743A0A0029ED00E05343425F434653521D
:1030A0005F424653523A30782530325820000000B3
:1030B00049425553455252200000000050524543AA
:1030C0004953455252200000494D505245434953FF
:1030D0004552522000000000554E53544B45525269
:1030E0002000000053544B45525220005343422DC0
:1030F0003E424641523A253038580A000A00000044
:1031000070B504460D4600F027FC002070BD00009D
:1031100010B51448006890F82100C0F3400020B9B1
:10312000002011490870084610BD1048006838B1E9
:1031300080220E4801680C48FDF748F90A48F3E779
:1031400000F056FF20B10AA10748FDF752F903E04D
:1031500009A10548FDF74DF909A10348FDF72AF932
:103160000148E1E720000020F007002024000020B3
:103170006D7368200000000066696E7368200000AF
:103180003E00000010B501F05BF910BD10B504461B
:103190000948006820B9A322084909A001F0B0F845
:1031A0000548006890F8210064F34100024909686D
:1031B00081F8210010BD000020000020025E000800
:1031C0007368656C6C20213D2052545F4E554C4C09
:1031D00000000000024A1060024A116070470000BF
:1031E00010000020140000207FB500251449154868
:1031F000FFF7F0FF144815490860154C0A20152107
:103200004FF40072134BCDE90032CDE902100023D8
:10321000114A12A1204601F09BFE054600231A46E2
:1032200010A10A48006801F0D5FC0120FFF7AEFFAD
:103230001CB115B9204601F061FF002004B070BD3B
:10324000DC6200087C620008780700202000002073
:1032500000050020780500206D3200087473686551
:103260006C6C00007368727800000000E948006828
:1032700090F8210020F00100401CE649096881F81F
:103280002100FFF745FF054601F08AFAC1E1FFF78B
:1032900079FF0446002C00DABBE11B2C05D101208C
:1032A000DC49096881F82000B3E1DA48006890F849
:1032B000200001280DD15B2C05D10220D5490968D9
:1032C00081F82000A5E10020D249096881F820009A
:1032D00045E0D048006890F8200002283FD1002047
:1032E000CC49096881F82000412C00D191E1422CA1
:1032F00000D18EE1442C11D1C6480068B0F87400AA
:1033000058B1C5A001F04CFAC2480068B0F874008A
:10331000401EC0490968A1F874007AE1432C1ED10F
:10332000BC480068B0F87400BA490968B1F8721076
:10333000884213DAB7480068B0F87420B5480068CE
:103340002230815CB5A001F02BFAB2480068B0F8D9
:103350007400401CAF490968A1F8740059E10CB130
:10336000FF2C00D155E1092C1FD1002503E0AAA0B4
:1033700001F016FA6D1CA7480068B0F87400A84266
:10338000F5DCA4480068223002F03AFCA14800684D
:103390002230FDF727F880B29E490968A1F8720033
:1033A0009C490968A1F8740033E17F2C01D0082CF6
:1033B0006ED198480068B0F8740000B929E19548CA
:1033C0000068B0F87200401E92490968A1F87200C6
:1033D00090480068B0F87400401E8E490968A1F852
:1033E00074008C480068B0F872008A490968B1F826
:1033F000741088423FDD874B1B68B3F87230854EEE
:103400003668B6F874609A1B824B1B68B3F8743048
:103410005B1C804E3668223699197E4B1B68B3F8C8
:1034200074607C4B1B682233F01801F000FA002214
:1034300078480068B0F8721076480068223042542C
:1034400074480068B0F8742072480068223011187F
:1034500073A001F0A5F96F480068B0F8745003E05C
:103460006DA001F09DF96D1C6A480068B0F872000B
:10347000A842F5DA0BE06CA001F092F90021654852
:103480000068B0F872206348006822308154C0E0C0
:103490000D2C01D00A2C2BD100F0AAFD012812D14D
:1034A0005C48006890F8210000F0010010B15FA0B6
:1034B00001F076F957480068B0F872105548006876
:1034C000223000F0F7FCFFF723FE054601F068F913
:1034D0005021504800682230FCF761FF00204D4920
:1034E0000968A1F872004B490968A1F8740090E0DE
:1034F00048480068B0F87200502804DB00204549B5
:103500000968A1F8720043480068B0F874004149A6
:103510000968B1F87210884245DA3E4B1B68B3F86F
:1035200072303C4E3668B6F874609A1B394B1B6893
:10353000B3F87460374B1B682233F118354B1B68A6
:10354000B3F874305B1C334E36682236981901F09C
:103550006EF930480068B0F874202E4800682230B8
:1035600084542C48006890F8210000F0010050B10C
:1035700028480068B0F874202648006822301118E6
:103580002BA001F00DF923480068B0F8745003E057
:1035900021A001F005F96D1C1E480068B0F872000A
:1035A000A842F5DC12E01B480068B0F87220194808
:1035B0000068223084541748006890F8210000F019
:1035C000010018B1214615A001F0EAF800241148C5
:1035D0000068B0F87200401C0E490968A1F872003A
:1035E0000C480068B0F87400401C0A490968A1F84A
:1035F000740008480068B0F87200502808DB00200A
:1036000004490968A1F8720002490968A1F8740028
:1036100000BF3CE6200000200800000025630000F9
:103620000825732020080000082008000A00000078
:103630002573000010B51448006800F0020010B1B6
:1036400012A001F0ADF81048006800F0804088B189
:103650000D48C01E007808B1FFF7D4FC0A48001FCF
:10366000007808B100F062FB0748801E008808B1AE
:1036700002F01EFB0448006800F0004010B109A0F1
:1036800001F08EF810BD00002CED00E06661696C61
:10369000656420766563746F722066657463680A7A
:1036A000000000006465627567206576656E740AC7
:1036B0000000000010B502A001F072F8002010BD5B
:1036C00048656C6C6F2052542D546872656164219A
:1036D0000A00000013E0002220214FF09040FCF788
:1036E000DFFF40F2DC5001F074FC012220214FF09A
:1036F0009040FCF7D5FF4FF4FA7001F06AFCEAE75E
:1037000010B50CA001F04CF80F4804680CE0022240
:103710000EA12068FCF776FE00B904E00CA0216839
:1037200001F03EF800BF08340A4800688442EED336
:10373000002010BD2D2D46756E6374696F6E204C90
:103740006973743A0A000000100000205F5F0000F7
:1037500025730A00140000202DE9F04704460D46A9
:1037600016461F46284601F0D1F8814609F10408A3
:10377000C4F8008025726660E76000202061BDE823
:10378000F0872DE9F84F07460C464FF0000A00205D
:103790002061E06808B1207A10B9002000F035B847
:1037A000D4F800801FB945464FF0010A00E03D46BD
:1037B000FCF708FD0090BAF1000F0ED1A5F10C0B3B
:1037C0009BF8080020F08000217A884204D00098FD
:1037D000FCF7FCFC0020E1E700BF0026D4F80490D1
:1037E0000BE02D68454501D1002507E0761C49F81E
:1037F000045BE068B04200D100E0F2E700BF00984F
:10380000FCF7E4FC26612846C8E718BCBDE8E08F59
:103810002DE9F04F8FB000270FF2D409082302AA38
:1038200002210AA8FFF798FF4FF008084A464146D0
:1038300032A000F0B5FF404600F054FC36A000F086
:10384000AFFF00BF0AA93846FFF79BFF07460025D8
:1038500045E002A850F82500A0F10C06FCF7B2FCE8
:103860008246307A20F080009DF83010884203D0E4
:103870005046FCF7ABFC31E05046FCF7A7FC344661
:1038800004F114000168814201D1012100E000210E
:10389000A9B904F1140000F0B7FF8346A08B2346BA
:1038A00008224146CDE9000B21A000F079FF04F188
:1038B000140002F0C1F917A000F072FF0DE004F14E
:1038C000140000F0A1FF8346A08B23460822414646
:1038D000CDE9000B1AA000F063FF00BF6D1C0E982D
:1038E000A842B6DC002FADD100200FB000F030B8F8
:1038F00073656D6170686F7265000000252D2A2E5A
:1039000073207620202073757370656E6420746850
:10391000726561640A000000202D2D2D202D2D2DB3
:103920002D2D2D2D2D2D2D2D2D2D2D0A000000009E
:10393000252D2A2E2A7320253033642025643A0051
:10394000252D2A2E2A7320253033642025640A0071
:1039500030BCBDE8C08F00002DE9F04FAFB04FF094
:1039600000090FF21C1B082321AA012129A8FFF737
:10397000F3FE4FF0080A5A465146434800F010FF44
:10398000504600F0AFFB41A000F00AFF00BF29A99C
:103990004846FFF7F6FE81464FF0000865E021A893
:1039A00050F82800A0F10C05FCF70CFC2E90287AAA
:1039B00020F080009DF8AC10884203D02E98FCF7D0
:1039C00005FC50E07822294603A8FCF7CFFC2E988E
:1039D000FCF7FCFB2C4694F83500234608225146A0
:1039E00000903AA000F0DCFE94F8340000F00F06DE
:1039F000012E03D138A000F0D3FE15E0022E03D132
:103A000038A000F0CDFE0FE01EB939A000F0C8FECE
:103A10000AE0042E03D139A000F0C2FE04E0032E18
:103A200002D139A000F0BCFEA76A00E07F1C387804
:103A30002328FBD0D4E90A10791A401A642148439C
:103A4000E16AB0FBF1F00290216B206CCDE900013E
:103A5000E369A06AC01AE36AC1181A462DA0029B46
:103A600000F09EFE00BF08F101082D98404596DC4D
:103A7000B9F1000F8BD100202FB000F05FB800002B
:103A80007468726561640000E0610008202D2D2DCE
:103A900020202D2D2D2D2D2D2D202D2D2D2D2D2D7D
:103AA0002D2D2D2D202D2D2D2D2D2D2D2D2D2D2060
:103AB000202D2D2D2D2D2D20202D2D2D2D2D2D2D5D
:103AC0002D2D2D202D2D2D0A00000000252D2A2E14
:103AD0002A732025336420002072656164792020D8
:103AE000000000002073757370656E6400000000B4
:103AF00020696E69742020200000000020636C6F34
:103B000073652020000000002072756E6E696E677C
:103B100000000000203078253038782030782530BB
:103B200038782020202025303264252520202030A0
:103B3000782530387820253033640A0030BCBDE861
:103B4000C08F00002DE9F04790B000270FF2B409B4
:103B5000082303AA0A210BA8FFF7FEFD4FF008086F
:103B60004A46414629A000F01BFE404600F0BAFA42
:103B700030A000F015FE00BF0BA93846FFF701FE8C
:103B8000074600262DE003A850F82600A0F10C04FB
:103B9000FCF718FB8246207A20F080009DF8341054
:103BA000884203D05046FCF711FB19E05046FCF761
:103BB0000DFB2546D5E909012B460822CDE9000178
:103BC000414625A000F0ECFD687A00F0010018B134
:103BD00027A000F0E5FD02E028A000F0E1FD00BF15
:103BE000761C0F98B042CEDC002FC5D101F0D6FB79
:103BF0000446214625A000F0D3FD002010B0BDE80A
:103C0000F087000074696D6572000000252D2A2E72
:103C1000732020706572696F646963202020746965
:103C20006D656F757420202020202020666C6167F0
:103C30000A000000202D2D2D2D2D2D2D2D2D2D2078
:103C40002D2D2D2D2D2D2D2D2D2D202D2D2D2D2DB1
:103C50002D2D2D2D2D2D0A00252D2A2E2A732030B5
:103C600078253038782030782530387820000000EA
:103C70006163746976617465640A000064656163F8
:103C8000746976617465640A00000000637572727D
:103C9000656E74207469636B3A3078253038780A21
:103CA000000000001FB5FEF77BF9FEF7EBF9FEF709
:103CB00015FA14201E214FF400720B4BCDE900328F
:103CC000CDE902100023094A09A10C4801F040F98E
:103CD000044614B9094801F011FA09A000F060FD8A
:103CE000002004B010BD000014010020D5360008EB
:103CF0006C65647368696E65000000009C000020BC
:103D000052542D4E616E6F207374617274207375FE
:103D1000636365737366756C6C79000010B500F0B1
:103D200037FBBDE81040FFF7BDBF000010B51CA079
:103D300000F036FD1F4801781FA000F031FD1D483E
:103D4000007800F0010010B121A000F029FD194811
:103D5000007800F0020010B120A000F021FD15480D
:103D6000007800F0080010B11FA000F019FD114804
:103D7000007800F0100010B11EA000F011FD0D48F9
:103D8000007800F0800030B10A480C3001681CA0B7
:103D900000F006FD02E01EA000F002FD10BD0000D4
:103DA0006D656D206D616E616765206661756C740F
:103DB0003A0A000028ED00E05343425F4346535265
:103DC0005F4D4653523A307825303258200000007B
:103DD0004941434356494F4C20000000444143436E
:103DE00056494F4C200000004D554E53544B455200
:103DF000522000004D53544B455252200000000009
:103E00005343422D3E4D4D41523A253038580A0019
:103E10000A0000002DE9F04781460026002799F8A6
:103E2000000028B90021084600F0A8F8BDE8F08796
:103E30001B48046827E006221AA12068FCF7E2FA72
:103E400000B11FE0206800F106084846FCF7CAFAF6
:103E50008246524641464846FCF7D4FA88B926B90C
:103E600047463846FCF7BEFA06464146384601F05A
:103E70000EFF0546B54200DA2E4641460BA000F083
:103E80008FFC00BF08340A4800688442D3D327B1AE
:103E900032463946484600F038FF00BFC6E700000A
:103EA000100000205F5F636D645F000025730A00EF
:103EB0001400002038B504460D4601E0641C6D1E58
:103EC00020782028FAD020780928F7D00DB90020D2
:103ED00038BD6A4629462046FEF7AEFF08B900986D
:103EE000F6E7204600E0401C0178202902D0017846
:103EF0000029F8D100210170214603A000F050FCF8
:103F00004FF0FF30E4E7000025733A20636F6D6DDA
:103F1000616E64206E6F7420666F756E642E0A0089
:103F20002DE9F04106460D4600271048046815E0CB
:103F300006220FA12068FCF765FA00B10DE02168A8
:103F4000881D2A463146FCF75DFA28B9A81D21686C
:103F5000085C08B9676805E000BF083406480068D7
:103F60008442E5D300BF3846BDE8F0811000002050
:103F70005F5F636D645F00001400002070B505464C
:103F80000E460EA000F00CFC134804680DE006225B
:103F900012A12068FCF736FA00B105E02068811D07
:103FA00010A000F0FDFB00BF08340F4800688442F9
:103FB000EDD30EA000F0F4FB002070BD52542D5440
:103FC0006872656164207368656C6C20636F6D6DE9
:103FD000616E64733A0A0000100000205F5F636D39
:103FE000645F000025732000140000200A00000018
:103FF000012070472DE9F04782460E469046544610
:104000000025002755E003E000202070641C6D1C93
:104010002078202802D02078092801D1B542F3D396
:10402000082F12D326A000F0BBFB4FF0000906E0DA
:1040300058F829102AA000F0B3FB09F10109B9458D
:10404000F6D326A000F0ACFB35E0B54200D332E059
:10405000207822281CD1641C6D1C48F827407F1C46
:1040600009E020785C2804D16078222801D1641C02
:104070006D1C641C6D1C2078222801D0B542F0D341
:10408000B54200D317E000202070641C6D1C10E0C6
:1040900048F827407F1C01E0641C6D1C2078202814
:1040A00004D02078092801D0B542F5D3B54200D319
:1040B00001E0B542A7D300BF3846BDE8F087000055
:1040C000546F6F206D616E792061726773202120BB
:1040D0005765206F6E6C79205573653A0A000000B1
:1040E0002573200010B5044602E004A000F058FB40
:1040F000201EA4F10104F8D110BD00002D00000025
:104100002DE9F04F86B00D469C46DDE9106401961E
:104110000F9B04F04008B8F1000F02D0DFF8708167
:1041200001E0DFF87081CDF8008004F01008B8F1EC
:10413000000F01D024F0010404F00108B8F1000FD1
:1041400002D04FF0300801E04FF02008C2460027AF
:1041500004F00208B8F1000F11D0002A02DA2D276E
:1041600052420CE004F00408B8F1000F01D02B27F4
:1041700005E004F00808B8F1000F00D02027002166
:1041800042B94FF0300B8846491C0DF1080909F877
:1041900008B01DE01AE0E146B9F10A0F08D14FF06E
:1041A0000A0BB2FBFBFE0BFB1E28B2FBFBF202E08C
:1041B00002F00F08120900BFDDF8009019F808B0EE
:1041C0008846491C0DF1080909F808B0002AE2D117
:1041D000B14200DD0E469B1B04F01108B8F1000F40
:1041E00010D117B1002B00DD5B1E06E0A84203D200
:1041F0004FF0200880F80080401CB3F10008A3F1C4
:104200000103F3DC27B1A84200D207705B1E401CFB
:1042100004F01008B8F1000F0AD104E0A84201D25E
:1042200080F800A0401CB3F10008A3F10103F5DC05
:1042300006E0A84203D24FF0300880F80080401C0E
:10424000B046761E8845F4DC08E0A84205D20DF1A0
:10425000080818F8018080F80080401CB1F10008BF
:10426000A1F1010104DDDDF80480B8F1000FECD10B
:1042700006E0A84203D24FF0200880F80080401CDE
:10428000B3F10008A3F10103F3DC06B000F004B8B9
:104290004A6000083960000830BCBDE8C08F0000EB
:1042A0001FB50D4C14230A224FF48061A4F58060E1
:1042B0008DE80F000023094A09A1204600F048FEBE
:1042C00020B1CA22084909A000F01AF804B020461B
:1042D000BDE8104000F012BF780C00201D3D000822
:1042E0006D61696E00000000CB5E00087265737539
:1042F0006C74203D3D2052545F454F4B0000000040
:10430000F8B504460D461646002000900A4800689D
:1043100058B933462A46214608A000F041FA00BFAA
:104320009DF800000028FBD005E0324629462046D3
:10433000014B1B689847F8BD3400002028257329DD
:1043400020617373657274696F6E206661696C6554
:10435000642061742066756E6374696F6E3A2573AC
:104360002C206C696E65206E756D6265723A2564ED
:10437000200A000070B5044C044D02E0206880471C
:10438000241DAC42FAD370BD6C6200087062000854
:1043900070B5044C044D02E020688047241DAC42F7
:1043A000FAD370BD706200087862000810B5FBF7A0
:1043B00009FF044604480088401C00B202490880F6
:1043C0002046FBF703FF10BD6800002010B5FBF787
:1043D000F9FE04460C480088401E00B20A490880D5
:1043E0000846B0F9000000280ADC002008802046BA
:1043F000FBF7ECFE0548006828B100F027FB02E05F
:104400002046FBF7E3FE10BD680000206C00002092
:1044100010B5FCF797FAFDF78DFEFEF77DF8FEF775
:10442000C7F8064800684FF47A71B0FBF1F42046F3
:10443000FEF78EFCFFF79EFF10BD00000C00002071
:1044400010B54FF0FF340D480068C069C0F340104C
:1044500020B10A480068808CC4B20CE007480068AC
:10446000C069C0F3C00018B1082004490968086297
:104470000A2000F0AEFDE0B210BD0000AC03002049
:10448000F8B50546002400260D20009000BF00204E
:104490000E4981F8740000BF284600F02DFC064646
:1044A00000BF0FE0285D0A2805D101231A4669469E
:1044B0000648FDF709FD291901231A460348FDF7AF
:1044C00003FD641CB442EDD3F8BD0000AC03002032
:1044D0002DE9F041054605F128062C1D33480068FA
:1044E00040B1304631490968884707460FB9BDE8F1
:1044F000F08100BF2EA0216C00F052F930A0616A5B
:1045000000F04EF932A0A16A00F04AF934A0E16A45
:1045100000F046F936A0216B00F042F938A061683E
:1045200000F03EF93AA0A16800F03AF93CA0E16839
:1045300000F036F93EA0216900F032F940A061692F
:1045400000F02EF942A0A16900F02AF944A0E16927
:1045500000F026F946A0216A00F022F948A0616B1C
:1045600000F01EF94AA0A16B00F01AF94CA0E16B13
:1045700000F016F9287800F0040048B100F076FD4C
:10458000074639464AA000F00BF9FFF7E5F902E0CB
:104590004FA000F005F9287800F0100010B953A0E2
:1045A00000F0FEF8FFF746F800BFFEE79800002095
:1045B0007073723A203078253038780A0000000095
:1045C0007230303A203078253038780A0000000008
:1045D0007230313A203078253038780A00000000F7
:1045E0007230323A203078253038780A00000000E6
:1045F0007230333A203078253038780A00000000D5
:104600007230343A203078253038780A00000000C3
:104610007230353A203078253038780A00000000B2
:104620007230363A203078253038780A00000000A1
:104630007230373A203078253038780A0000000090
:104640007230383A203078253038780A000000007F
:104650007230393A203078253038780A000000006E
:104660007231303A203078253038780A0000000066
:104670007231313A203078253038780A0000000055
:104680007231323A203078253038780A0000000044
:10469000206C723A203078253038780A000000000B
:1046A0002070633A203078253038780A0000000006
:1046B00068617264206661756C74206F6E20746826
:1046C000726561643A2025730D0A0D0A000000002E
:1046D00068617264206661756C74206F6E20686119
:1046E0006E646C65720D0A0D0A000000465055207C
:1046F000616374697665210D0A000000F0B5044617
:104700000D461646301D20F00700443801460022B1
:1047100003E00D4F41F82270521C112AF9D34D626B
:104720004FF0000CC1F828C0C1F82CC0C1F830C04F
:10473000C1F834C08B63CC634FF0807CC1F840C0BB
:1047400000270F60F0BD0000EFBEADDE10B500BF6A
:1047500000BFFBF737FD044604480078401C0349BE
:1047600008702046FBF732FD10BD00002C00002031
:1047700001480078704700002C00002010B500BFF1
:1047800000BFFBF71FFD044604480078401E0349A4
:1047900008702046FBF71AFD10BD00002C00002019
:1047A0000FB438B505A800907F210848009B049AF3
:1047B00001F06EF804467F2C00D97F240348FFF7F0
:1047C0005FFE0020009038BC5DF814FBE80D00206F
:1047D0004060006070474060006070470268516050
:1047E00002680A60016048607047026851600268B0
:1047F0000A6001604860704701460868884201D13C
:10480000012070470020FCE7014600200A4601E035
:104810001268401C13688B42FAD17047D0E900211E
:104820005160D0E90012116040600060704770B5BF
:104830000C46014623468B4210D29D188D420DD95D
:104840001144134405E05D1E2B462E784D1E29466B
:104850002E70151EA2F10102F5D108E003E013F855
:10486000015B01F8015B151EA2F10102F7D170BDD9
:10487000F0B50C460546E6B2042A15D300F003074E
:1048800097B9014646EA062343EA034304E008C118
:1048900008C108C108C1103A102AF8D201E008C1C5
:1048A000121F042AFBD20D4601E005F8016B171E0A
:1048B000A2F10102F9D1F0BD70B504462CB940F265
:1048C00035120C490CA0FFF71BFD00202072FBF7EE
:1048D00079FC054604F10C00D0E900215160D0E9D3
:1048E000001211604060006000BF2846FBF76EFCBC
:1048F00070BD00006A6000086F626A656374202101
:104900003D2052545F4E554C4C00000002460021A1
:104910000AE0074800EB01100078904203D10448F8
:1049200000EB01107047491C0329F2DB0020F9E776
:104930003800002010B504462CB940F2CB120449CF
:1049400004A0FFF7DDFC207A20F0800010BD0000FD
:10495000956000086F626A65637420213D2052549F
:104960005F4E554C4C0000002DE9F04704460E46C2
:10497000904600273046FFF7C9FF054625B9FB22C0
:10498000184919A0FFF7BCFCFFF710FD6F680AE09B
:10499000A7F10C0AA24505D140F20912114918A04D
:1049A000FFF7AEFC3F68281D8742F1D1FFF70EFDEF
:1049B00046F08000207208224146204600F0A5F90A
:1049C000FBF700FC8146281D04F10C0102685160D0
:1049D00002680A600160486000BF4846FBF7F6FBCA
:1049E000BDE8F0875B600008696E666F726D617488
:1049F000696F6E20213D2052545F4E554C4C000093
:104A00006F626A20213D206F626A65637400000056
:104A100010B504462CB94FF4DC72064906A0FFF726
:104A20006FFC207A00F0800008B1012010BD00204A
:104A3000FCE700007B6000086F626A6563742021F8
:104A40003D2052545F4E554C4C0000002DE9F04182
:104A5000FBF7B8FB07461A48008858BB194800689E
:104A6000FEF7AAF9461E184850F83600A0F11404C3
:104A70001648006884421CD015490E70134805681A
:104A8000046000BF00BF1348007850B904F11C0156
:104A900005F11C00FBF79DFB3846FBF797FBBDE8D3
:104AA000F08100BF00BF04F11C0105F11C00FBF701
:104AB00090FB00BF3846FBF789FB00BFEFE7000023
:104AC0006800002074000020680E00206C000020A8
:104AD000700000202C00002070B504462CB94FF463
:104AE0009172144914A0FFF70BFCFBF76BFB054612
:104AF00014F8340F20F00F0040F0010020706278AD
:104B0000343C124B03EBC20004F114014268116003
:104B100042684A604160086000BF00BF00BF0C49A6
:104B2000A06B096808430A4908602846FBF74EFB5A
:104B300070BD0000B7600008746872656164202170
:104B40003D2052545F4E554C4C000000680E002032
:104B50007400002070B504462CB94FF4A8721549B2
:104B600015A0FFF7CDFBFBF72DFB054600BF00BFEF
:104B700004F11400D0E900215160D0E90012116065
:104B80004060006000BF94F83510104A02EBC1008D
:104B90000168814201D1012100E0002129B10C48C6
:104BA000A16B006888430A4908602846FBF70EFBA2
:104BB00070BD0000D16000087468726561642021D6
:104BC0003D2052545F4E554C4C000000680E0020B2
:104BD000740000202DE9F04104460E4615461F469C
:104BE00024B9CA220E490FA0FFF78AFBB5F5803F12
:104BF00004D3CB220A490FA0FFF782FB32460221E1
:104C00002046FFF7B1FE00BF04F1140040600060D1
:104C100000BF00BFA58367720020BDE8F0810000DF
:104C2000F55E000873656D20213D2052545F4E559E
:104C30004C4C000076616C7565203C20307831303A
:104C4000303030550000000008B509A0FFF7A8FD7E
:104C50000AA0FFF7A5FD12A0032301221946009028
:104C600012A0FFF79DFD19A0FFF79AFD08BD0000F7
:104C70000A205C207C202F0A000000002D205254C6
:104C8000202D2020202020546872656164204F7000
:104C900065726174696E672053797374656D0A007B
:104CA0004A756E202037203230323100202F207C90
:104CB000205C202020202025642E25642E256420C1
:104CC0006275696C642025730A0000002032303060
:104CD00036202D203230313920436F707972696768
:104CE00068742062792072742D7468726561642022
:104CF0007465616D0A00000001460A4600E0521C1E
:104D000010780028FBD1501A704770B50346A2B145
:104D100018460C4600BF14F8016B00F8016B3EB951
:104D200002E0002500F8015B551E2A1EF9D102E0C1
:104D3000551E2A1EEFD100BF00BF184670BD0000EF
:104D400010B500200C49088000BF00BF002405E01A
:104D50000A4901EBC400FFF73BFD641C202CF7DB84
:104D60001F200749087000200649086006490860AE
:104D70000648FFF72DFD10BD68000020680E0020DA
:104D8000700000206C0000207400002078000020DB
:104D900070B508480068FEF70FF8451E064850F841
:104DA0003500A0F114040548046004F11C00FBF771
:104DB00056FA70BD74000020680E00206C000020C0
:104DC00010B5002405E0044901EBC400FFF703FD22
:104DD000641C002CF7D010BD80000020704700003C
:104DE00070B512480468FBF7EDF905462046FFF759
:104DF000B1FE042084F8340004F1440000F08CFB80
:104E00002046FFF705FE012805D1206F18B920467E
:104E1000FFF752FD04E004F114010548FFF7DEFC42
:104E20002846FBF7D3F9FFF711FE70BD6C00002098
:104E30007800002001E000F001F8FCE770B548E0E0
:104E400000BFFBF7BFF90646FFF792FC40B12449CB
:104E500024A0FFF7A5FC992221492CA0FFF750FAC6
:104E60003046FBF7B3F900BFFBF7ACF90546FDF799
:104E7000D9FF30B326480068A0F1140404F11400EF
:104E8000D0E900215160D0E900121160406000605B
:104E900000BFFFF78BFA206F10B12046216F8847C3
:104EA0002046FFF7B5FD012808D12046FFF704FD95
:104EB000FFF78CFA2846FBF789F970BDFFF786FAF1
:104EC00003E02846FBF782F9F7E72846FBF77EF96F
:104ED00000BFFDF7A7FF0028B2D100BFEDE700003B
:104EE000DF5E000846756E6374696F6E5B25735DE7
:104EF000207368616C6C206E6F742062652075731E
:104F0000656420696E204953520A00003000000099
:104F1000780000201FB520201F218022074BCDE9FB
:104F20000032CDE902100023054A06A1074800F02F
:104F30000FF8064800F0E2F81FBD0000680D0020E1
:104F4000354E00087469646C65000000F00C0020A8
:104F50002DE9FF5F04460D46174698460EAE96E8CB
:104F6000400E24B9E6220D490DA0FFF7C9F926B974
:104F7000E7220A490FA0FFF7C3F92A46012120467C
:104F8000FFF7F2FC43463A46294620468DE8400E9C
:104F9000FDF79EFF04B000F019B80000FB600008A8
:104FA00074687265616420213D2052545F4E554CF7
:104FB0004C000000737461636B5F737461727420E2
:104FC000213D2052545F4E554C4C000030BCBDE892
:104FD000C09F70B50446204600F0C4F90546284637
:104FE00000F04AF870BD000070B504462CB940F2DC
:104FF000B522174917A0FFF783F92046FFF79AFC5F
:10500000012805D040F2B62211491748FFF778F978
:1050100000BF00BF94F8340000F00F00022804D055
:1050200000BF00BF4FF0FF3070BDFBF7CBF8054667
:1050300004F11400FFF7F2FB04F1440000F0D4FB8C
:105040002846FBF7C3F82046FFF746FD0020EBE7B4
:105050006161000874687265616420213D205254CA
:105060005F4E554C4C000000246200080148006867
:10507000704700006C00002031B5FBF7A3F805462F
:10508000164804682CB94FF4FB72154915A0FFF7B8
:1050900037F92046FFF74EFC012805D040F2F71201
:1050A0000F491548FFF72CF9204600F089F86A46A9
:1050B000002104F1440000F0D3F904F1440000F0B1
:1050C000BFFA2846FBF782F8FFF7C0FC206B801C74
:1050D00008B900202063002038BD00006C000020CB
:1050E0002D61000874687265616420213D2052546E
:1050F0005F4E554C4C0000002462000810B5044679
:105100002CB94FF48672194919A0FFF7F9F894F8F1
:10511000340000F00F0028B140F20D12134919A01D
:10512000FFF7EEF82046FFF705FC012805D04FF405
:1051300087720E492148FFF7E3F894F8360084F8A7
:10514000350094F8351001208840A06300BF00BFEF
:10515000022084F834002046FFF746FFFFF786FF61
:1051600008B1FFF773FC002010BD00000A610008C1
:1051700074687265616420213D2052545F4E554C25
:105180004C000000287468726561642D3E73746180
:105190007420262052545F5448524541445F535472
:1051A00041545F4D41534B29203D3D2052545F54A3
:1051B00048524541445F494E49540000246200086A
:1051C00070B504462CB940F28A22194919A0FFF79C
:1051D00097F82046FFF7AEFB012805D040F28B225E
:1051E00013491948FFF78CF800BF00BF94F834004A
:1051F00000F00F00012804D000BF00BF4FF0FF30C7
:1052000070BDFAF7DFFF054694F8340020F00F0078
:1052100040F0020084F834002046FFF79BFC04F1C4
:10522000440000F0E1FA2846FAF7D0FF0020E7E753
:105230004F61000874687265616420213D205254FA
:105240005F4E554C4C0000002462000870B50546C6
:105250002C462CB940F2E222134914A0FFF750F873
:1052600094F8340000F00F00022805D040F2E32249
:105270000D4913A0FFF744F82046FFF75BFB012818
:1052800005D04FF4397208491C48FFF739F86FF020
:105290000100206304F11400FFF7C0FA2046FFF775
:1052A0001BFCFFF7D3FB70BD726100087468726568
:1052B000616420213D2052545F4E554C4C0000004B
:1052C000287468726561642D3E73746174202620B1
:1052D00052545F5448524541445F535441545F4DCA
:1052E00041534B29203D3D2052545F544852454183
:1052F000445F53555350454E44000000246200085B
:1053000070B5FAF75FFF05461448046894F8340056
:1053100000F00F0001281CD1D4E90510814218D0FB
:1053200004F11400FFF77AFA94F835200C4B03EBE4
:10533000C20004F114014268116042684A60416091
:10534000086000BF2846FAF741FFFFF77FFB002007
:1053500070BD2846FAF73AFF0020F9E76C000020FC
:10536000680E00200146002902DA4FF0FF3014E0F9
:105370004FF47A7291FBF2F24FF47A7302FB03F06E
:105380001A4691FBF2F302FB13124FF47A735A435D
:1053900002F2E73292FBF3F21044704701480068D2
:1053A000704700002800002010B50A480068401C23
:1053B00008490860FFF75AFE0446206C401E20642E
:1053C000206C18B9E06B2064FFF79AFF00F004F836
:1053D00010BD00002800002070B500BF00BFFFF71F
:1053E000DDFF0546FAF7EEFE06462AE01B48006898
:1053F000A0F11404A06A281A6FF0004188421FD25D
:105400002046FDF7E7FDD4E907108847FFF7C6FF00
:10541000054600BF00BF607A00F0020058B1607A14
:1054200000F0010038B1607A20F00100607220467F
:1054300000F006F905E0607A20F00100607200E0FB
:1054400004E00648FFF7D8F90028CFD000BF304667
:10545000FAF7BCFE00BF00BF70BD00008000002056
:1054600070B504460E4615462CB94FF4E77215493F
:1054700015A0FEF745FF2046FFF75CFA0A2805D085
:1054800040F2CF120F4915A0FEF73AFF4EB1012EA0
:1054900004D0022E08D0032E10D10AE0606A2860E2
:1054A0000CE02868606209E0607A20F00200607217
:1054B00004E0607A40F00200607200BF00BF00208C
:1054C00070BD0000CE61000874696D657220213DD9
:1054D0002052545F4E554C4C0000000072745F6FB8
:1054E000626A6563745F6765745F747970652826A6
:1054F00074696D65722D3E706172656E7429203D10
:105500003D2052545F4F626A6563745F436C617300
:10551000735F54696D65720070B5044624B9CF227B
:10552000124913A0FEF7ECFE2046FFF703FA0A2803
:1055300004D0D0220D4913A0FEF7E2FE2046FFF76B
:1055400067FA20B9D12209491DA0FEF7D9FEFAF762
:1055500039FE05462046FDF73DFD2846FAF736FEA2
:105560002046FFF7A9F9002070BD0000A1610008E6
:1055700074696D657220213D2052545F4E554C4C2C
:105580000000000072745F6F626A6563745F676534
:10559000745F74797065282674696D65722D3E702C
:1055A0006172656E7429203D3D2052545F4F626ADE
:1055B0006563745F436C6173735F54696D657200FA
:1055C00072745F6F626A6563745F69735F73797326
:1055D00074656D6F626A656374282674696D65729F
:1055E0002D3E706172656E74290000002DE9F8434C
:1055F00004460D4616461F46DDE9088924B9BA223D
:1056000009490AA0FEF77CFE2A460A212046FFF738
:10561000ABF943463A4631462046CDF80090FDF7B7
:10562000B8FCBDE8F88300009361000874696D65FB
:105630007220213D2052545F4E554C4C000000001A
:105640002DE9F84305462DB94FF49972464947A014
:10565000FEF756FE2846FFF76DF90A2805D040F2FE
:105660003312414946A0FEF74BFEFAF7ABFD8046E8
:105670002846FDF7AFFC687A20F0010068724046CA
:10568000FAF7A4FD6FF00041686A884205D340F242
:105690004312354949A0FEF733FEFFF77FFE696AE2
:1056A0000844A862FAF78EFD80464D4E009600240D
:1056B0002AE019E05DF824201168142202EBC402EC
:1056C000881A826AAB6AD21A00D108E0826AAB6A91
:1056D000D21A6FF000439A4200D20CE000BF5DF88E
:1056E000240000684DF824005DF8240006EBC40196
:1056F00049688842DED100BF2CB15DF82400083033
:10570000611C4DF82100641C002CD2D03548006883
:10571000401C344908600846076805F114010098E8
:10572000FFF763F8022412E007F0030060B9C4F148
:10573000010305F1140202EBC301C4F101025DF89B
:105740002200FFF752F800E003E0BF08641C012CC0
:10575000EAD900BF687A40F0010068724046FAF763
:1057600035FD0020BDE8F883B161000874696D65FE
:105770007220213D2052545F4E554C4C00000000D9
:1057800072745F6F626A6563745F6765745F747972
:105790007065282674696D65722D3E706172656E44
:1057A0007429203D3D2052545F4F626A6563745FE7
:1057B000436C6173735F54696D65720074696D65E4
:1057C000722D3E696E69745F7469636B203C205270
:1057D000545F5449434B5F4D4158202F2032000005
:1057E000800000208800002070B504462CB940F2EB
:1057F000AB12124912A0FEF783FD2046FFF79AF87C
:105800000A2805D04FF4D6720C4912A0FEF778FD95
:10581000607A00F0010010B94FF0FF3070BDFAF768
:10582000D1FC05462046FDF7D5FB2846FAF7CEFC0D
:10583000607A20F0010060720020EFE7C06100088C
:1058400074696D657220213D2052545F4E554C4C59
:105850000000000072745F6F626A6563745F676561
:10586000745F74797065282674696D65722D3E7059
:105870006172656E7429203D3D2052545F4F626A0B
:105880006563745F436C6173735F54696D65720027
:105890002DE9FF4F89B0804644460A9808EB000680
:1058A000464504D24FF0FF36A6EB08000A906FE1A0
:1058B0000B980078252806D0B44202D20B980078C5
:1058C0002070641C61E1002526E00B98401C0B90C1
:1058D0000B9800782D2802D145F010051CE00B989C
:1058E00000782B2802D145F0040515E00B980078CC
:1058F000202802D145F008050EE00B9800782328F7
:1059000002D145F0200507E00B980078302802D13D
:1059100045F0010500E000E0D7E700BF4FF0FF379A
:105920000B98007830380A2804D20BA800F09CF9B4
:1059300007460EE00B9800782A280AD10B98401CE5
:105940000B900C9880C80C90002F02DA7F4245F033
:1059500010054FF0FF390B9800782E281CD10B98BA
:10596000401C0B900B98007830380A2804D20BA802
:1059700000F07AF981460AE00B9800782A2806D1CF
:105980000B98401C0B900C9850F8049B0C90B9F1AC
:10599000000F01DA4FF00009002004900B98007806
:1059A000682803D00B9800786C2805D10B980078F4
:1059B00004900B98401C0B900A2005900B980078DF
:1059C0006F2875D00CDC632813D004DC252870D038
:1059D00058286FD18DE064286DD06928F9D18FE007
:1059E00070286AD0732825D0752878D07828F0D10F
:1059F00082E005F0100040B904E0B44201D220205A
:105A00002070641C781E071EF7DC0C9810F8041B2D
:105A10000C90C8B20790B44201D207982070641C61
:105A200004E0B44201D220202070641C781E071EBE
:105A3000F7DCAAE00C98006806900C98001D0C900A
:105A4000069808B95CA006900698FFF755F98346BA
:105A5000B9F1000F02DDCB4500DDCB4605F01000AB
:105A600048B904E0B44201D220202070641C3846BA
:105A70007F1E5845F6DC002008900BE0B44202D2AD
:105A8000069800782070641C0698401C06900898C0
:105A9000401C089008985845F0DB04E0B44201D25D
:105AA00020202070641C38467F1E5845F6DC6CE0D0
:105AB0001CE015E028E022E0FFE7781C10B9082779
:105AC00045F00105CDE9007902950C9804C8102332
:105AD00031460C902046FEF713FB044655E012E0D9
