:020000040800F2
:10000000F80D0020A1010008A3140008A7020008B1
:10001000A1140008FF030008E51C00080000000010
:10002000000000000000000000000000B301000814
:100030000104000800000000F30100085517000843
:10004000BB010008BB010008BB010008BB010008A0
:10005000BB010008BB010008BB010008BB01000890
:10006000BB010008BB010008BB010008BB01000880
:10007000BB010008BB010008BB010008BB01000870
:10008000BB010008BB010008BB010008BB01000860
:10009000BB010008BB010008BB010008BB01000850
:1000A000BB010008BB010008BB010008BB01000840
:1000B000BB010008BB010008BB010008BB01000830
:1000C000BB010008BB010008BB010008BB01000820
:1000D000BB010008BB010008BB010008BB01000810
:1000E000BB010008BB010008BB010008BB01000800
:1000F000BB010008BB010008BB010008BB010008F0
:10010000BB010008BB010008BB010008BB010008DF
:10011000BB010008BB010008BB010008BB010008CF
:10012000BB010008BB010008BB010008BB010008BF
:10013000BB010008BB010008BB010008BB010008AF
:10014000BB010008BB010008BB010008BB0100089F
:10015000BB010008BB010008BB010008BB0100088F
:10016000BB010008BB010008BB010008BB0100087F
:10017000BB010008BB010008BB0100080000000033
:10018000BB010008BB010008DFF810D000F020F927
:1001900000480047F5030008AFF30080F80D002089
:1001A0000648804706480047FEE7FEE7FEE7FEE711
:1001B000FEE7FEE7FEE7FEE7FEE7FEE79918000828
:1001C00089010008EFF3108072B6704780F3108841
:1001D0007047434A1368012B04D04FF001031360AA
:1001E000404A1060404A116040484FF08051016021
:1001F0007047EFF3108272B63948016851B34FF07F
:10020000000101603748016891B1EFF309811EF0E8
:10021000100F08BF21ED108B21E9F00F4FF0000403
:100220001EF0100F08BF012441F8044D0068016062
:100230002D490968096808C9B1E8F00F002B18BFFB
:1002400000F05AB881F309884EF0100E002B18BF49
:100250002EF0100E82F310884EF0040E70472249E3
:100260000860EFF3148222F0040282F314881D491F
:100270004FF0000008601A494FF0010008601C4868
:100280004FF47F01D0F8002041EA020101601748D5
:100290004FF08051016017480068006880F30888BB
:1002A00061B662B670471EF0040F0CBFEFF3088012
:1002B000EFF3098020E9F00F40F804ED40F804ED79
:1002C0001EF0040F0CBF80F3088880F3098800B586
:1002D00001F006FF5DF804EB4EF0040E70470000DD
:1002E000740000206C0000207000002004ED00E08D
:1002F00020ED00E008ED00E0B1EC088BB1EC08CB9C
:10030000FFF7A0BF2DE9F05F0546002092469B460F
:1003100088460646814640241BE02846414647461B
:10032000224600F044F853465A46C01A914110D371
:1003300011461846224600F02BF82D1A67EB0108EB
:100340004F4622460120002100F022F817EB000959
:100350004E41201EA4F10104DFDC484631462A4606
:10036000434600F000B830BCBDE8C09FD2B201E007
:1003700000F8012B491EFBD270470022F6E710B5AA
:1003800013460A4604461946FFF7F0FF204610BD03
:10039000202A04DB203A00FA02F100207047914045
:1003A000C2F1200320FA03F3194390407047202A3A
:1003B00004DB203A21FA02F00021704721FA02F30F
:1003C000D040C2F120029140084319467047000016
:1003D000064C074D06E0E06840F0010394E8070092
:1003E00098471034AC42F6D3FFF7D2FE183000081D
:1003F0003830000810B502F028FD002010BDFEE7DF
:10040000704700002DE9F04FDFF83492002309F126
:10041000040A012403250AF1040B87B00F270BF10E
:10042000040E04E104FA03F632407CD0D1F804C093
:10043000BCF1010F08D0BCF1020F05D0BCF1110FC7
:1004400002D0BCF1120F29D1D0F808C0CDF800C0FD
:100450004FEA430C05FA0CF8CDF80CC0DDF800C0EB
:100460002CEA080CCDF800C0D1F80C80DDF80CC0E7
:1004700008FA0CF8DDF800C048EA0C08C0F808805B
:10048000D0F8048091F804C028EA0608CCF3001CD8
:100490000CFA03FC4CEA080CC0F804C0D1F8048044
:1004A0006FEA080C5FEA8C7C09D1D0F82CC02CEAEA
:1004B000060CC8F3C0069E4046EA0C06C662D0F899
:1004C0000CC04FEA430805FA08F62CEA060CCDF8F2
:1004D000148002968E6806FA08F646EA0C06C66094
:1004E0004E68022E01D0122E15D1DE0800EB8606D2
:1004F0000396366A4FEA437C4FEADC6807FA08FC49
:1005000026EA0C06D1F810C00CFA08FC4CEA060CDE
:10051000039EC6F820C00668DDF808C026EA0C066F
:1005200091F804C000E081E0DDF814800CF0030CC9
:100530000CFA08FC4CEA060CC0F800C04E68F60045
:1005400074D5404ED6F860C04CF0010CC6F860C0BF
:10055000366E23F0030C06F0010600963A4E664410
:100560000296D6F808C09E074FEA167807FA08F6F2
:100570002CEA060CB0F1904F04D0344EB04203D1B7
:1005800001261BE0002619E0314EB04201D10226BF
:1005900014E0304EB04201D103260FE02E4EB0429F
:1005A00001D104260AE02D4EB04201D1052605E016
:1005B0002B4EB04201D1062600E0072606FA08F6C7
:1005C00046EA0C06DDF808C0CCF80860D9F80060EF
:1005D000CC46D1F8048096435FEAC83800D516436C
:1005E000CCF80060DAF80060D446D1F80480964375
:1005F0005FEA883800D51643CCF80060DBF800606D
:10060000DC46D1F8048096435FEAC82800D516433B
:10061000CCF80060DEF80060F446D1F80480964320
:100620005FEA882800D51643CCF800605B1C0A6896
:1006300032FA03F67FF4F6AE07B000F013B800000C
:100640000004014000100240000001400004004886
:1006500000080048000C0048001000480014004842
:100660000018004830BCBDE8C08F0AB181617047F6
:1006700081627047014880687047000000000020D8
:10068000094810B50168002441F48071016003201D
:1006900000F064F8002000F009F808B1012401E03E
:1006A00000F026F8204610BD0020024070B50E4E26
:1006B00005460024307898B14FF47A71B1FBF0F020
:1006C0000A490968B1FBF0F000F008FE40B9102DAE
:1006D00006D200222946501E00F020F8756000E086
:1006E0000124204670BD0000000000200C00002006
:1006F000094808B5016E41F001010166016E01F083
:1007000001010091816D41F080518165806D00F0A3
:100710008050009008BD000000100240F0B40E4B65
:100720001B680C46C3F30223C3F10705042D00D94F
:100730000425191D072901D2002300E0DB1E012634
:1007400006FA05F1491E214099409E40761E16404A
:100750003143F0BC01F0C7BA0CED00E0064900F0EF
:10076000070208684FF6FF03184040EA0220034AD8
:1007700010430860704700000CED00E00000FA052F
:100780001649B0F5007F0868C0F3412009D002285F
:1007900005D0086820F4C06040F480600860002044
:1007A00070470128FBD0086820F4C06040F4007056
:1007B00008600B483222006850430A4AB0FBF2F04E
:1007C000401C00E0401E4A69520501D50028F9D1BD
:1007D00048694005E3D503207047000000700040E1
:1007E0000C00002040420F000248006800F4C06086
:1007F00070470000007000402DE9F84F04460027C4
:100800000088E54D3E46010504F1200B1DD5606EC4
:1008100078B1B0F5800F11D0B0F5000F04D0B0F56D
:10082000400F22D001270FE0E86840F48030E860F4
:100830001BE00021201D00F035FE03E0002158469A
:1008400000F0C6FE070010D03E462088C00426D522
:10085000A06EC0B1B0F1807F1AD0B0F1007F0DD092
:10086000B0F1407F19D0012718E0D5F88800616EFB
:1008700020F440000843C5F88800E6E7E86840F443
:100880008030E86009E00021201D00F00BFE03E04D
:100890000021584600F09CFE0746F7B13E4620680E
:1008A00080033AD5A86D4FF00008C00009D4A86DA8
:1008B00040F08050A865A86D4FF0010800F080500E
:1008C0000090DFF8D8A2DAF8001041F48071CAF87D
:1008D0000010FFF7CFFE814610E0D5F88800A16E2A
:1008E00020F040700843C5F88800D8E7FFF7C2FE43
:1008F000A0EB0900022801D9032705E0DAF800007F
:10090000C005F3D5002F7CD04FEA0706B8F1000FE1
:1009100003D0A86D20F08050A8652078C00707D0CC
:10092000D5F88800A16B20F003000843C5F88800C3
:100930002078800707D5D5F88800E16B20F00C00FF
:100940000843C5F888002078400707D5D5F8880007
:10095000216C20F030000843C5F88800207800079B
:1009600007D5D5F88800616C20F0C0000843C5F8B1
:1009700088002078C00607D5D5F88800A16C20F43F
:1009800040700843C5F888002078800607D5D5F860
:100990008800E16C20F440600843C5F88800208896
:1009A000800507D5D5F88800E16D20F44020084384
:1009B000C5F888002088400507D5D5F88800216E45
:1009C00020F440100843C5F888002078400607D579
:1009D000D5F88800216D20F440500843C5F8880000
:1009E0002078000607D5D5F88800616D20F44040D6
:1009F0000843C5F888002088C00509D5D5F88800C7
:100A000000E01CE0A16D20F440300843C5F88800E8
:100A100020884FF0006780044FF080684FD5D5F8EC
:100A20008800E16E20F040600843C5F88800E06E61
:100A3000B8423CD1E86840F48010E8603FE0D5F867
:100A4000900010F4407015D0D4F88410814211D079
:100A5000D5F89000D5F8901020F4407041F4803122
:100A6000C5F89010D5F8901021F48031C5F8901099
:100A7000C5F89000C00710D0FFF7FCFD074641F213
:100A8000883906E0FFF7F6FDC11B494501D9032669
:100A90003CE7D5F890008007F4D5D5F89000D4F85D
:100AA000841020F440700843C5F890002EE74045BC
:100AB00005D10121201D00F0F5FC00B1064620689B
:100AC000000317D5D5F88800216F20F04060084357
:100AD000C5F88800206FB84204D1E86840F480105F
:100AE000E86007E0404505D10121201D00F0DAFC57
:100AF00000B106462068400317D5D5F88800616F1D
:100B000020F040600843C5F88800606FB84204D107
:100B1000E86840F48010E86007E0404505D1012115
:100B2000201D00F0BFFC00B10646208840041AD505
:100B3000D5F88800A16F20F040500843C5F8880020
:100B4000A06FB0F1805F03D0B0F1005F05D00AE084
:100B50000221201D00F0A6FC03E00221584600F00F
:100B600037FD00B106462088000407D5D5F8880077
:100B7000E16F20F080400843C5F888002068C0037A
:100B800007D555F8880FD4F8801020F000400843AE
:100B90002860304600F004B80010024000700040A9
:100BA00018BCBDE8E08F00002DE9F0470F460500B6
:100BB00058D0404E306800F00700B84209D2306883
:100BC00020F0070038433060306800F00700B8427A
:100BD00048D12878384CC0072CD06868032811D039
:100BE000022812D0216898B1490500293ADAA16893
:100BF00021F003010143A160FFF73CFD804641F273
:100C0000883910E021688901EFE721688903ECE762
:100C10008907EAE7FFF72EFDA0EB0801494502D955
:100C20000320BDE8F087A068696800F00C00B0EB15
:100C3000810FEFD12878800705D5A068A96820F03A
:100C4000F0000843A060306800F00700B8420BD9FC
:100C5000306820F0070038433060306800F007004B
:100C6000B84201D00120DCE72878400705D5A0680C
:100C7000E96820F4E0600843A0602878000706D502
:100C8000A068296920F4605040EAC100A06000F02B
:100C90003FF8A168094AC1F30311515C01F01F013B
:100CA000C8400749086007480068BDE8F047FFF7FB
:100CB000FDBC000000200240001002409C2E0008F5
:100CC0000C000020040000200548064900688968DF
:100CD000054AC1F30221515C01F01F01C840704771
:100CE0000C00002000100240DC2E000805480649D8
:100CF00000688968054AC1F3C221515C01F01F01F7
:100D0000C84070470C00002000100240DC2E000894
:100D100070B52549002318468A68CC6812F00C0289
:100D200004F00306214C4FEA640509D00C2A05D0D3
:100D3000042A32D0082A00D1284670BD012E10D1D5
:100D40000B681B0704D4D1F89430C3F3032302E0EB
:100D50000B68C3F30313164E56F82330DAB10C2A8E
:100D6000EBD1C86800F00300022818D0032818D07F
:100D70001846CA68CB68C2F30212C3F30623434382
:100D8000521CB3FBF2F2C868C0F34160401C400043
:100D9000B2FBF0F070BD184670BD204670BD204615
:100DA000E7E72846E5E70000001002400024F400D1
:100DB000AC2E00082DE9F84304006FD0FE4DA86862
:100DC00000F00C06E86800F003072078C00664D540
:100DD00076B10C2E01D1012F0AD0A0690028286815
:100DE0007AD040F001002860FFF744FC80465DE0C7
:100DF0002868800702D5A0690028DED0216A28680B
:100E0000000703D5286800F0F00004E0D5F894004E
:100E1000F02202EA1010814216D9084600F05CFC6C
:100E200000283BD1286840F0080028602868216A23
:100E300020F0F000084328606868E16920F47F40F2
:100E400040EA0120686016E0286840F00800286049
:100E50002868216A20F0F000084328606868E1698A
:100E600020F47F4040EA0120686026B9206A00F043
:100E700033FC0028D5D1FFF74BFFA968CF4AC1F357
:100E80000311515C01F01F01C840CD490860CD48F5
:100E90000068FFF70BFC00287ED12EE0CAE000BFFF
:100EA000FFF7E8FBA0EB0800022876D82868800747
:100EB000F6D5286840F0080028602868216A20F0EC
:100EC000F000084328606868E16920F47F4040EA48
:100ED0000120686011E0FFE720F001002860FFF7C3
:100EE000C9FB804606E000BFFFF7C4FBA0EB08008B
:100EF0000228DAD828688007F6D42078C00740D0C6
:100F0000082E18D00C2E01D1032F14D06068B0F534
:100F1000803F17D0B0F5A02F286817D020F480307C
:100F20002860286820F4802028606068E0B1FFF71E
:100F3000A1FB804614E02868800322D56068002861
:100F400078D01EE0286840F48030EDE740F480203F
:100F50002860F7E7FFF78EFBA0EB08006428A4D811
:100F600028688003F6D50CE0FFF784FB804605E097
:100F7000FFF780FBA0EB0800642896D82868800360
:100F8000F6D4207880073BD5042E11D00C2E01D149
:100F9000022F0DD0E06801E092E1F1E0002828681E
:100FA0001ED040F480702860FFF764FB07460CE019
:100FB000286840050CD5E0680028C1D008E000BFD3
:100FC000FFF758FBC01B022893D828684005F7D5C7
:100FD0006868217C20F0F85040EA016068600FE00A
:100FE00020F480702860FFF745FB074605E000BF4E
:100FF000FFF740FBC01B0228B1D828684005F7D492
:101000002078000729D560690028D5F8940012D00F
:1010100040F00100C5F89400FFF72CFB074604E000
:10102000FFF728FBC01B022899D8D5F89400800749
:10103000F6D512E000E120F00100C5F89400FFF7BA
:1010400019FB074605E000BFFFF714FBC01B022891
:1010500085D8D5F894008007F6D42078400766D567
:10106000A86D0027C00008D4A86D40F08050A86586
:10107000A86D012700F08050009053480168C90511
:1010800012D40168814641F480710160FFF7F2FAE1
:10109000804605E0FFF7EEFAA0EB080002286FD8C3
:1010A000D9F80000C005F5D5A068012816D005289C
:1010B000D5F8900017D020F00100C5F89000D5F8C1
:1010C000900020F0040000BFC5F89000A06841F235
:1010D0008839C0B1FFF7CEFA80460FE0D5F890000E
:1010E00040F00100F0E740F00400C5F89000F5E79B
:1010F000FFF7C0FAA0EB0801494541D8D5F89000A8
:101100008007F5D50EE0FFF7B5FA804606E000BF90
:10111000FFF7B0FAA0EB0801494531D8D5F89000A7
:101120008007F5D41FB1A86D20F08050A865A06A93
:1011300038B302280AD00C2E7ED0286820F08070A8
:101140002860286810F0205F77D0AAE0E868E26A9B
:1011500000F0030191422BD1216B00F070020901D4
:101160001039914224D1626B00F4FE41B1EB022FA1
:101170001ED1A26B00F40031072A03D0012202E045
:101180009DE089E00022914212D1A18F00F4C002BB
:1011900049084905A1F50011914209D194F8401080
:1011A00000F0C06049084906A1F1007181425CD09D
:1011B0000C2E41D0286809E0001002409C2E000847
:1011C0000C000020040000200070004040017ED48C
:1011D0002868C0007BD4286820F080702860FFF762
:1011E00049FA064605E000BFFFF744FA801B0228D3
:1011F00065D828688001F7D4D4E90B016FF00F029D
:1012000002EB01110843A18F5204490802EB41513E
:10121000626B41EA0221084394F840104FF07E428D
:10122000490802EB41610843A16B090940EA4140CA
:10123000E968284A114001E049E02EE00843E860EF
:10124000286840F080702860E86840F08070E860AE
:10125000FFF710FA044604E0FFF70CFA001B02281F
:101260002DD828688001F7D52FE0286880012CD47C
:10127000286840F080702860E86840F08070E8607E
:10128000FFF7F8F9044604E0FFF7F4F9001B022821
:1012900015D828688001F7D517E0E86820F003002A
:1012A000E860E8680C490840E860FFF7E3F90446A5
:1012B00008E000BFFFF7DEF9001B022802D9032077
:1012C000BDE8F88328688001F4D40020F8E7012005
:1012D000F6E700008C809DF9FFFFEEFE10B5401E82
:1012E000B0F1807F01D3012010BD4FF0E024606198
:1012F0000F21601700F0F7FC0020A061072020619B
:10130000002010BD10B5040002D0A06F10B107E09E
:10131000012010BD002084F87400204600F026F85B
:101320002420A0672068016821F0010101602046A7
:1013300000F062FB0128ECD0606A10B1204600F09A
:10134000C9FA2068416821F49041416020688168B1
:1013500021F02A0181602068016841F001010160EB
:101360002046BDE8104000F019BB000010B586B063
:10137000044614216846FFF700F8134920688842A4
:101380001FD11248816D41F400318165816D01F4F6
:1013900000310591C16C41F00101C164C06C694626
:1013A00000F0010005900C20009002200190002028
:1013B000029003200390072004904FF09040FFF725
:1013C00021F806B010BD00000044004000100240AB
:1013D00030B587B014216846FEF7CFFF1F48C16CB7
:1013E00041F00401C164C16C01F004010591C16CBC
:1013F00041F08001C164C16C01F080010591C16CB4
:1014000041F00101C164C16C01F001010591C16CA1
:1014100041F00201C164C06C4FF0904500F0020041
:101420000590002220212846FFF71FF94FF40050B5
:1014300000900B480024CDE9010469460948FEF7F5
:10144000E1FF202000900120CDE9010469462846F3
:101450000394FEF7D7FF07B030BD00000010024034
:1014600000002110000800480C4810B50A4901602E
:101470004FF4E1314160002181600C22C160C0E97C
:1014800004128161C16101624162FFF73BFF0028E4
:1014900001D072B6FEE710BD00440040800200207B
:1014A000FEE7FEE72DE9F041444C05468846E0683A
:1014B0000026810728680DD0E16801F00301814210
:1014C00016D1A8B1E0686968C0F30210401C8842D8
:1014D0000ED120E0012804D0022805D0032807D12E
:1014E00008E02168890701E021684905002907DB38
:1014F00001265FE02168890302D421684903F5E7EA
:10150000E1686A686FF00F0321F0730103EB0212C8
:1015100011430143E160206820F080602060FFF704
:10152000A9F8074605E000BFFFF7A4F8C01B022892
:1015300037D820680001F7D4B8F1000F18D0B8F1FF
:10154000010F1ED0287D4FF07E41400801EB406026
:10155000A96840EA01202169194A11400843206125
:10156000206840F080602060FFF784F807461AE0AA
:10157000A868E9680002090940EA41402169114A66
:10158000EBE7288A1049400801EB4050A96840EA7F
:10159000012021690D4AE0E7FFF76CF8C01B022823
:1015A00001D9032606E020680001F5D52069A96964
:1015B000084320613046BDE8F08100000010024081
:1015C000FF80FFF9FF80FDFF0000E0FFFF809FFF2D
:1015D0002DE9F0413D4C06468846E068002581072C
:1015E00030680DD0E16801F00301814216D1A8B145
:1015F000E0687168C0F30210401C88420ED120E000
:10160000012804D0022805D0032807D108E021686A
:10161000890701E021684905002907DB012551E020
:101620002168890302D421684903F5E7E1687268FB
:101630006FF00F0321F0730103EB0212114301431A
:10164000E160206820F080502060FFF713F8074623
:1016500005E000BFFFF70EF8C01B022829D820685C
:101660008000F7D4B8F1000F15D0307C4FF07E41E8
:10167000400801EB4060B16840EA01206169144A0A
:10168000114008436061206840F080502060FEF700
:10169000F1FF07460FE0B068F1680002090940EA6F
:1016A000414061690B4AEBE7FEF7E4FFC01B0228EB
:1016B00001D9032506E020688000F5D560697169CD
:1016C000084360612846BDE8F08100000010024038
:1016D000FF80FFF9FF80FDFFF8B51C4D0646002492
:1016E000A86DC00002D5FFF77FF80DE0A86D40F0AF
:1016F0008050A865A86D00F080500090FFF774F846
:10170000A96D21F08051A965B0F5007F04D0802E2D
:1017100007D94FF003040AE0802E08D9A02E01D883
:1017200004E001D1022402E0702E00D10124084817
:10173000016821F0070121430160006800F0070003
:10174000A04201D00120F8BD0020F8BD00100240E9
:101750000020024010B500F0E9FD01F045F9BDE8B8
:10176000104000F0F1BD30B5B9B0442122A8FEF719
:1017700004FE142133A8FEF700FE88216846FEF718
:10178000FCFD0224E00125901020229426902C9448
:101790000120CDE92D400A202F900720CDE930040B
:1017A00022A83294FFF706FB08B172B6FEE70F20BD
:1017B000002533900320CDE934053695042133A864
:1017C0003795FFF7F1F908B172B6FEE70F95684655
:1017D0000094FFF711F808B172B6FEE74FF40070FD
:1017E000FEF7CEFF002801D072B6FEE739B030BD5B
:1017F00070B525490868000704D4D1F89400C0F3F7
:10180000032002E00868C0F30310204A52F8203099
:10181000886810F00C021E4807D01E4C042A06D01F
:101820006510082A05D00C2A05D003601CE004606E
:101830001AE0056018E0CA6802F00306CA68C2F33D
:101840000212521C022E19D0032E1AD0B3FBF2F250
:10185000CB68C3F306235343CA68C2F34162521CE8
:101860005200B3FBF2F202608968084AC1F3031127
:10187000103A515C0268CA40026070BDB4FBF2F2DB
:10188000E6E7B5FBF2F2E3E700100240AC2E0008F9
:101890000C0000200024F4000B48016841F47001A2
:1018A00001600A48016841F0010101600021816086
:1018B0000268074B1A4002608214C260026822F478
:1018C000802202608161704788ED00E000100240D4
:1018D000FFFFF6EA90F82410C90706D001684A68AD
:1018E000836A22F400321A434A6090F82410890770
:1018F00006D501684A68C36A22F480321A434A60F6
:1019000090F82410490706D501684A68036B22F451
:1019100080221A434A6090F82410090706D501680E
:101920004A68436B22F400421A434A6090F824103C
:10193000C90606D501688A68836B22F480521A436F
:101940008A6090F82410890606D501688A68C36BFE
:1019500022F400521A438A6090F82410490611D5E7
:1019600001684A68036C22F480121A434A60016CD1
:10197000B1F5801F06D101684A68436C22F4C002A9
:101980001A434A6090F82410090606D501684A688F
:10199000806C22F4002202434A607047F8B50026AA
:1019A0000446C0F88060FEF765FE054620680068C2
:1019B0006FF07E47000708D52B4600224FF4001138
:1019C0002046009700F03CF960B9206800684007A5
:1019D0000AD52B4600224FF480012046009700F0E4
:1019E0002FF908B10320F8BD2020A067E067266624
:1019F00084F874600020F8BD2DE9F04104460168C8
:101A000080682269E3691043626900251A43104324
:101A1000814F0A68814B1A4002430A60206841687E
:101A2000E26821F44051114341602168A069B94244
:101A300001D0226A10438A6822F4306202438A602D
:101A40007749226877488A420DD1D0F8880010F093
:101A5000030006D0012866D0022854D0032851D1B3
:101A600063E001204FE070498A420BD1D0F8880032
:101A700010F00C0047D0042845D0082851D00C287D
:101A800040D152E069498A420BD1D0F8880010F069
:101A9000300038D0102846D0202842D0302831D10C
:101AA00043E063498A420BD1D0F8880010F0C000AF
:101AB00029D0402837D0802833D0C02822D134E024
:101AC0005C498A420ED1D0F8880010F440701AD0D8
:101AD000B0F5807F27D0B0F5007F22D0B0F5407FF1
:101AE00010D122E0BA420DD1D0F8880010F4406045
:101AF00009D0B0F5806F16D0B0F5006F11D0B0F5F9
:101B0000406F12D010204C4900264FF40043BA42D7
:101B10002CD160B102280DD004280DD008286FD137
:101B20000EE00220EFE70420EDE70820EBE7FFF7E7
:101B3000CBF803E00B4603E0FFF7EAF8030066D0BA
:101B4000626802EB420098425AD8B3EB023F57D882
:101B5000190E1B025008181871410023FEF7D2FB22
:101B6000364AA0F5407191424FD949E0E2694FF6FB
:101B7000EF779A4228D1092842D2DFE800F0050821
:101B80000D41224141410E00FFF79EF801E0FFF7B1
:101B9000ADF8030001D13AE00B466068590001EB53
:101BA0005001B1FBF0F080B2A0F11001B94227D88A
:101BB0004FF6F0710140C0F3420001432068C1605C
:101BC00025E0FFF7A5F8E4E7092819D2DFE800F0DF
:101BD00005080D181A1818180E00FFF775F801E01F
:101BE000FFF784F8030001D111E00B46606803EBB6
:101BF0005001B1FBF0F080B2A0F11001B94204D95C
:101C0000012504E0FFF784F8ECE72168C860666608
:101C10002846A666BDE8F08100800040F369FFEF2A
:101C200000380140001002400044004000480040DD
:101C3000004C0040005000400024F400FFFC0F0066
:101C40002DE9F0479A4617460E4604464FF0000924
:101C50004FF02008089D39E0681C37D0FEF70AFDD8
:101C6000A0EB0A00A84222D80DB3206801684907FA
:101C70002CD5C069C043000528D421684FF400600A
:101C800008622068016821F4D071016020688168D1
:101C900021F001018160C4F87880C4F87C80C4F828
:101CA000808000BF84F874900320BDE8F08720682E
:101CB000016821F4D07101602068816821F0010180
:101CC0008160C4F87880C4F87C80EBE72068C06944
:101CD00036EA000004D00020B842BDD00020E4E77E
:101CE0000120F9E7FEE70907090E002804DB00F1EF
:101CF000E02080F80014704700F00F0000F1E020B1
:101D000080F8141D70470000002807D00E4910F01D
:101D1000FF0F04D051FA80F00078401C704710F497
:101D20007F4F04D0C0F30720085C0930704710F4DF
:101D30007F0F04D0C0F30740085C1130704701EBFF
:101D40001060007819307047E42E000802E008C8DF
:101D5000121F08C1002AFAD170477047002001E025
:101D600001C1121F002AFBD170470000034801681F
:101D7000814201D0012070470020704754000020AC
:101D80002DE9FC411F460446DDE90831DDE90A651D
:101D9000143040600060C4E90827C4E90A310A46EB
:101DA000232118461C3400F005FBD4E90301421836
:101DB000D4E90101104B121F00F09AFA44F81A0BF3
:101DC000002004F801690D4A04F8036BE4E80205F9
:101DD00044F8105901C404F83C0B01C444F87409D8
:101DE000009023460190194604F1440000F06EFE75
:101DF0000020BDE8FC810000E92600082729000832
:101E0000F0E905124A60D0E90012116040600060FC
:101E100070474FF090454FF4FA7400222021284675
:101E2000FEF723FC204600F0FCFC0122202128467E
:101E3000FEF71BFC204600F0F4FCEEE71FB5FEF7B2
:101E40001FFCFFF790FCFFF7C3FAFFF70DFB0A48F2
:101E500014231E224FF4C8718DE80F000023074A97
:101E600007A1783800F0C2FC18B90348783800F0B0
:101E700023FD04B0002010BDF0000020131E000858
:101E80006C65647368696E650000000010B500F051
:101E9000CDF8BDE81040FFF7D1BF00002DE9F04FAD
:101EA00085B09946DDE90EA5109CAB46630602D5C8
:101EB000DFF814C103E0DFF810C1ACF1110CE30648
:101EC00001D524F00104E30701D0302300E02023F2
:101ED00000260493A3070BD5002A02DA2D265242CE
:101EE00006E0630701D52B2602E0230700D5202654
:101EF0000023EE4622B930228DF8002001230CE0A9
:101F0000B9F10A0F14D002F00F0812091CF808806A
:101F10000EF803805B1C002AF2D1AB4200DD1D46A7
:101F2000AAEB050214F0110F4FF0200708D015E0BE
:101F30000A27B2FBF7F807FB1828B2FBF7F2E5E730
:101F40003EB1002A05DD521E03E0884200D2077030
:101F5000401CB2F1000CA2F10102F6DC26B188426D
:101F600000D20670401C521EE40605D508E08842E7
:101F700001D2049C0470401C141EA2F10102F6DC84
:101F800030242E466D1E9E420ADD884200D2047027
:101F9000401CF6E7884201D2E55C0570401C00E079
:101FA00074461D1EA3F1010307DDBBF1000FF1D143
:101FB00003E0884200D20770401C131EA2F1010208
:101FC000F7DC05B000F002B8F52F000830BCBDE822
:101FD000C08F00001FB50A4C14230A224FF4806101
:101FE000A4F580608DE80F000023064A06A1204674
:101FF00000F0FCFB04B02046BDE8104000F05CBCE3
:10200000080700208D1E00086D61696E0000000049
:1020100070B5044C044D02E020688047241DAC429A
:10202000FAD370BD0C3000081030000870B5044CB5
:10203000044D02E020688047241DAC42FAD370BDF5
:10204000103000081430000810B5FEF7BBF8044A41
:102050005188491C5180BDE81040FEF7B7B8000018
:102060004800002010B5FEF7ADF80B4C6188491E02
:1020700009B2618000290ADC00216180FEF7A6F820
:102080006068002807D0BDE8104000F00BBABDE83A
:102090001040FEF79BB810BD4800002010B5FFF7B8
:1020A000A7FB0C484FF47A710068B0FBF1F0401EBA
:1020B000B0F1807F09D24FF0E021074A4861FF204C
:1020C00010700020886107200861BDE81040FFF70C
:1020D0009FBF00000C00002023ED00E070470000CF
:1020E00070B52F490546283009682C1D11B1884765
:1020F000002853D02BA0216C00F034F92DA0616A88
:1021000000F030F92FA0A16A00F02CF931A0E16AAB
:1021100000F028F933A0216B00F024F935A06168A4
:1021200000F020F937A0A16800F01CF939A0E1689F
:1021300000F018F93BA0216900F014F93DA0616995
:1021400000F010F93FA0A16900F00CF941A0E1698D
:1021500000F008F943A0216A00F004F945A0616B82
:1021600000F000F947A0A16B00F0FCF849A0E16B7A
:1021700000F0F8F82878400706D500F077FB014614
:1021800048A000F0EFF802E04EA000F0EBF828784D
:10219000C00602D452A000F0E5F8FEE770BD0000D2
:1021A000680000207073723A203078253038780A41
:1021B000000000007230303A203078253038780A3C
:1021C000000000007230313A203078253038780A2B
:1021D000000000007230323A203078253038780A1A
:1021E000000000007230333A203078253038780A09
:1021F000000000007230343A203078253038780AF8
:10220000000000007230353A203078253038780AE6
:10221000000000007230363A203078253038780AD5
:10222000000000007230373A203078253038780AC4
:10223000000000007230383A203078253038780AB3
:10224000000000007230393A203078253038780AA2
:10225000000000007231303A203078253038780A9A
:10226000000000007231313A203078253038780A89
:10227000000000007231323A203078253038780A78
:1022800000000000206C723A203078253038780A3F
:10229000000000002070633A203078253038780A3A
:1022A0000000000068617264206661756C74206FC4
:1022B0006E207468726561643A2025730D0A0D0AF8
:1022C0000000000068617264206661756C74206FA4
:1022D0006E2068616E646C65720D0A0D0A00000064
:1022E00046505520616374697665210D0A0000002F
:1022F00070B50446121D22F0070000220A4D443832
:1023000040F82250521C112AFAD341620021816206
:10231000C16200F13402016382E81A004FF0807359
:102320000364016070BD0000EFBEADDE10B5FDF7C7
:1023300049FF044A1178491C1170BDE81040FDF7AF
:1023400045BF00001400002010B5FDF73BFF044A14
:102350001178491E1170BDE81040FDF737BF00002D
:10236000140000200FB47F2110B503AB0448029A7B
:1023700000F022FC0248FFF7B1FE10BC5DF814FB30
:10238000780800200268516002680A6001604860B5
:1023900070470268516002680A60016048607047D7
:1023A000D0E900124A60D0E900121160406000607C
:1023B0007047000010B50346CCB2042A1AD3810737
:1023C00018D1194644EA042343EA034306E008C14E
:1023D000103A08C141F8083B41F8043C102AF6D2F3
:1023E00001E008C1121F042AFBD20B4602E000BF25
:1023F00003F8014B521EFBD210BD10B5044600205D
:102400002072FDF7DFFEF4E903124A60D4E90012FE
:10241000116064602460BDE81040FDF7D7BE000085
:10242000074A002102EB01131B78834202D102EB21
:1024300001107047491C0329F4DB0020704700009D
:10244000180000202DE9F041054617460E460846C3
:10245000FFF7E6FF0446FFF7F7FD211D606800E087
:1024600000688842FCD1FFF7FDFD46F0800028722D
:1024700008223946284600F0EDF8FDF7A3FE54F88F
:10248000041F0C354D602168296025606C60BDE833
:10249000F041FDF79BBE007A000601D50120704790
:1024A0000020704770B5FDF78DFE114C0546608821
:1024B000B0B9A068FFF728FC0E49401E626851F8C9
:1024C0003010143991420BD020700B4861600078B5
:1024D00001F11C01002802F11C0006D0FDF779FE75
:1024E0002846BDE87040FDF771BEFDF772FEF7E7C4
:1024F00048000020F80800201400002010B5044611
:10250000FDF760FE024694F834000E4920F00F00FB
:10251000401C84F8340094F8350001EBC00104F14C
:1025200014004B6818604B68A361486006486161FD
:10253000A16B836819438160BDE810401046FDF728
:1025400045BE0000F80800204800002010B50446F1
:10255000FDF738FE04F11401D1E900235360D1E9FD
:1025600000231A60A161616194F83520074951F890
:10257000323001EBC2018B4204D10549A36B8A685A
:102580009A438A60BDE81040FDF720BEF80800209D
:102590004800002008B509A0FFF7E4FE0AA0FFF7F5
:1025A000E1FE12A0032300900122194612A0FFF7BA
:1025B000D9FEBDE8084018A0FFF7D4BE0A205C2071
:1025C0007C202F0A000000002D205254202D2020B6
:1025D000202020546872656164204F7065726174B8
:1025E000696E672053797374656D0A004A756E20B1
:1025F0002037203230323100202F207C205C2020F8
:1026000020202025642E25642E2564206275696CA7
:10261000642025730A0000002032303036202D203F
:102620003230313920436F70797269676874206283
:10263000792072742D746872656164207465616DAF
:102640000A000000014600E0491C0A78002AFBD17C
:10265000081A704710B5002A07D0034611F8014B3D
:1026600003F8014B2CB1521EF8D110BD03F8011B29
:1026700000E00021521EF9D110BD000010B50A493A
:1026800000230A4C4B80184604EBC002401C5260E9
:1026900012602028F8DB1F20087003484B600C30C4
:1026A0008B604060006010BD48000020F8080020EA
:1026B00010B5074CA068FFF727FB0649401E51F8EC
:1026C000300014386060BDE810401C30FDF7C7BD15
:1026D00048000020F8080020014840600060704772
:1026E000600000207047000070B513480468FDF7D3
:1026F00069FD05462046FFF729FF042084F83400D1
:1027000004F1440000F0D2F92046FFF7C4FE01288E
:1027100001D1206F58B104F114010848FFF732FECF
:102720002846FDF753FDBDE87040FFF7BBBE2046CD
:10273000FFF763FEF4E700004C0000205400002087
:1027400000F002F8FCE7000070B521E0FDF73AFD6B
:102750000546FFF70BFB28B315480168A1F11404E7
:10276000D1E900024260D1E90002106049600960CD
:10277000FFF76AFC216F09B1204688472046FFF722
:102780008AFE012809D0FFF76DFC2846FDF71EFDE3
:10279000FFF7ECFA0028D9D170BD2046FFF72DFED7
:1027A000FFF760FC2846BDE87040FDF70FBD000054
:1027B000540000201FB5094820231F2280218DE8E6
:1027C0000F000023064A07A1783800F00FF804B084
:1027D0000248BDE81040783800F06EB8F8070020D5
:1027E000412700087469646C650000002DE9FF5FF3
:1027F00092460EAA0C4692E8E0010A4699468346A4
:102800000121FFF71FFE8DE8E0014B4652462146AD
:102810005846FFF7B5FA04B000F000B830BCBDE888
:10282000C09F10B500F0C0F8BDE8104000F024B81B
:1028300070B5044690F8340000F00F00022802D072
:102840004FF0FF3070BDFDF7BDFC054604F11400EC
:10285000FFF7A6FD04F1440000F096F92846FDF7C5
:10286000B5FC2046FFF74AFE002070BD0148006815
:10287000704700004C000020F1B5FDF7A3FC0546B1
:102880000C480468204600F02DF804F144006A4624
:102890000021064600F0F2F8304600F02FF92846F5
:1028A000FDF794FCFFF7FEFD206B801C00D1206338
:1028B0000020F8BD4C00002010B590F83610012221
:1028C00080F835108A400221826380F83410FFF7C7
:1028D000AFFF0348006808B1FFF7E4FD002010BD1A
:1028E0004C00002070B5044690F8340000F00F0052
:1028F000012802D04FF0FF3070BDFDF763FC0546A4
:1029000094F8340020F00F00801C84F83400204636
:10291000FFF71CFE04F1440000F036F92846FDF7ED
:1029200055FC002070BD10B504466FF00100206317
:1029300004F11400FFF734FD2046FFF7DFFDBDE88A
:102940001040FFF7AFBD000070B5FDF73BFC064639
:102950001348046894F8340000F00F00012819D1DE
:10296000D4E90501884215D004F114000546FFF7AB
:1029700017FD94F835000B4901EBC00041680D606C
:1029800041686960456028603046FDF71FFCFFF72D
:1029900089FD02E03046FDF719FC002070BD000003
:1029A0004C000020F8080020002802DA4FF0FF3029
:1029B00070474FF47A7190FBF1F290FBF1F301FB59
:1029C000130000EB40034A43C3EBC0104B1E03EB64
:1029D000C00090FBF1F0104470470000014800680F
:1029E0007047000010000020094810B50168491C1C
:1029F0000160FFF73BFF016C491E016403D1C16B0D
:102A00000164FFF7A1FFBDE8104000F003B800002B
:102A1000100000202DE9F041FFF7E0FF0646FDF72A
:102A2000D1FB0746144D1EE060696FF00041301A7B
:102A3000143C88421AD22046FFF7E2F9D4E9071085
:102A40008847FFF7CBFF0646607A810708D5C107A4
:102A500006D020F001006072204600F04FF802E03E
:102A600020F0010060722C68AC42DDD13846BDE830
:102A7000F041FDF7ABBB00006000002049B1012927
:102A800004D0022908D003290ED109E0406A106061
:102A90000AE01168416207E0417A21F0020102E098
:102AA000417A41F0020141720020704770B505463D
:102AB000FDF788FB04462846FFF7A2F92046FDF7FC
:102AC00085FB2846FFF799FC002070BD2DE9F041F9
:102AD0001746DDE906580A461E4604460A21FFF756
:102AE000B1FC28F0010161720021C4E90951C4E977
:102AF0000776143464602460BDE8F081F8B50446BC
:102B0000FDF760FB05462046FFF77AF9607A20F072
:102B1000010060722846FDF759FBFFF75FFF616A0D
:102B20000844A062FDF74EFB0546164A00200092BD
:102B300002EBC002694653686FF0004C5DF820203C
:102B40000BE01268A2EBC0067769A66AB74202D012
:102B5000BE1B664503D341F820209A42F1D10948B3
:102B6000001F0168491C016004F114010098FFF77F
:102B700010FC607A40F0010060722846FDF726FBE9
:102B80000020F8BD6000002070B50446407AC00700
:102B90000ED0FDF717FB05462046FFF731F9284612
:102BA000FDF714FB607A20F001006072002070BD18
:102BB0004FF0FF3070BD00002DE9FF4F89460446FD
:102BC00000EB090783B080464FF0FF3A4FF0200B2F
:102BD000A74202D25746C8F1FF3907E1252803D0A2
:102BE000BC4200D2207081E000260599491C059165
:102BF00008782D2811D02B2812D0202813D0232874
:102C000014D0302815D00A785546303A0A2A13D203
:102C100005A800F02FF905461AE046F01006E4E793
:102C200046F00406E1E746F00806DEE746F0200637
:102C3000DBE746F00106D8E72A2809D10698491CA7
:102C4000059120C80690002D02DA6D4246F010066C
:102C5000CDF800A0059801782E2918D1401C0590C8
:102C60000178A1F130020A2A04D205A800F002F985
:102C7000009008E02A2908D1401C0590069802C857
:102C8000069000910846002801DA0020009005987F
:102C900000210278682A01D06C2A02D1401C11461A
:102CA000059000780A236F287DD00CDC63281FD0A4
:102CB00004DC25287BD058280DD17EE0642801D083
:102CC000692808D17DE070285ED073282CD0752843
:102CD00079D0782873D0BC4201D225202070059885
:102CE000641C0178D1B3BC4200D22170641C7AE02C
:102CF000F00608D458466D1E002D04DDBC4200D2FB
:102D00002070641CF7E70699BC4211F8040B069189
:102D100000D22070584602E0BC4200D22070641CF1
:102D20006D1E002DF8DC5EE0069808C8069003B919
:102D30003EA31846FFF786FC0099002902DD884271
:102D400000DD0846F1060AD459462A466D1E824225
:102D500005DDBC4200D22170641CF6E752E0002180
:102D600006E0BC4201D21A782270491C5B1C641C2C
:102D70008142F6DB5A4629466D1E814233DDBC4254
:102D800000D22270641CF6E7681C02D1082546F0C8
:102D9000010600980296CDE90050069810233946A6
:102DA00004C806901BE006E001E00CE007E0BC422E
:102DB0009CD2252016E7082305E046F040061023A4
:102DC00001E046F002066C2901D068291DD0069862
:102DD00004C8069000983946CDE900500296204676
:102DE000FFF75CF804460598401C059005980078AC
:102DF00000287FF4F3AEB9F1000F11D0BC420DD220
:102E000020700DE0401E0590EDE7069830F8041B99
:102E100006908AB2B007DDD512B2DBE707F8010CE5
:102E200007B0A4EB080000F005B80000284E554C90
:102E30004C29000030BCBDE8C08F00207047002046
:102E40007047002070470020704710B5FDF7BAF9B1
:102E5000FFF724F9FFF79EFBFFF73EFCFFF70EFCA0
:102E6000FFF7B8F8FFF73EFCFFF7A4FCFFF720FCE4
:102E7000002010BD10B5014600206FF02F0307E0C1
:102E8000541C0C60127800EB800003EB40001044EF
:102E90000A681478303C0A2CF2D310BD0000000000
:102EA000000000000102030406070809A0860100D3
:102EB000400D0300801A060000350C0040420F0050
:102EC00080841E0000093D0000127A000024F400F6
:102ED00000366E010048E801006CDC0200000000D2
:102EE00001020304000001000200010003000100D0
:102EF00002000100040001000200010003000100C3
:102F000002000100050001000200010003000100B1
:102F100002000100040001000200010003000100A2
:102F20000200010006000100020001000300010090
:102F30000200010004000100020001000300010082
:102F40000200010005000100020001000300010071
:102F50000200010004000100020001000300010062
:102F6000020001000700010002000100030001004F
:102F70000200010004000100020001000300010042
:102F80000200010005000100020001000300010031
:102F90000200010004000100020001000300010022
:102FA0000200010006000100020001000300010010
:102FB0000200010004000100020001000300010002
:102FC00002000100050001000200010003000100F1
:102FD00002000100040001000200010003000100E2
:102FE000020001003031323334353637383961620E
:102FF00063646566003031323334353637383941F1
:103000004243444546000000472E00083F2E00087A
:103010003B2E0008432E0008383000080000002036
:10302000780000004C1D0008B03000087800002037
:10303000800D00005C1D0008010000001000000071
:103040000000000000093D0000000000000000003A
:10305000010000001C0000201C000020780000007F
:10306000020000002C0000202C00002020000000A6
:103070000A0000003C0000203C0000202C00000062
:103080000000000000000000000000000000000040
:103090000000000000000000000000000000000030
:1030A0000000000000000000000000000000000020
:040000050800018965
:00000001FF
